:020000040000FA
:10000000F80B002049090000090A000065590000AA
:1000100085590000A5590000E5590000C5590000A8
:10002000000000000000000000000000C52C0000DF
:10003000150A0000000000001B0A0000210A000051
:100040000000000000000000000000002535000056
:1000500000000000270A000000000000000000006F
:100060002D0A0000330A0000390A00003F0A000090
:1000700000000000450A00004B0A0000510A000081
:10008000570A00005D0A00000000000000000000A8
:10009000630A0000690A0000000000000000000080
:1000A0006F0A00000000000000000000750A000058
:1000B0007B0A0000810A0000870A00008D0A000008
:1000C000930A0000990A00009F0A0000A50A000098
:1000D000AB0A000000000000B10A000000000000B0
:1000E000B70A000000000000BD0A00000000000088
:1000F000C30A000000000000000000000000000033
:1001000000000000C90A000000000000000000001C
:1001100000000000000000000000000000000000DF
:1001200000000000CF0A00000000000000000000F6
:1001300000000000000000000000000000000000BF
:100140000F0A000000015F5F02000000FE0B0000CC
:10015000552D000080060000000000000000000097
:100160000000000000000000000000000100FFC3CC
:10017000000000C4A01200200000000001015F5F29
:10018000030100001F010000B9040000000000008E
:10019000000000000100000001000000000000005D
:1001A000000000000000000000000000000000004F
:1001B00000000000700000000C5E000080000000E5
:1001C000000F0000010000004102000001015F5F1C
:1001D000040100001F0100002F06000000000000C5
:1001E000000000000000000001000000000000000E
:1001F00000000000000000000000000000000000FF
:1002000000000000175E000040000000050700002D
:08021000010000001B050000C5
:1002200038B50025054C29462046D4F80024C4F8EA
:10023000045405F040FCC4F8005438BD200C0020E4
:100240002DE9F04F04680546A5B0002C40F0088168
:100250002022214604A805F02EFC14AF20222146BE
:100260000CA805F028FC40222146384605F023FC66
:10027000EA6905F11C039846B2B10424EA6A05F163
:100280002C03EAB10426ECB96FF08304204625B0B4
:10029000BDE8F08F002CF1D053F8041D2246013C3C
:1002A0000029F7D01446E9E70324F5E7002EEAD049
:1002B00053F8041D3246013E0029F7D01646E2E706
:1002C0000326F5E740233A460021686805F030FC34
:1002D0004028D9D1CDE904700127DFF88CA10DF1B8
:1002E000100905F1100BBC422DD10CAF3C4600208B
:1002F0005D4A4146D2F8003408EB8608884540D173
:1003000008B1C2F800340023CDE90233059BA96887
:10031000402BC2F80414049A40F09380138D180AFD
:1003200003285AD0012800F081801268831ECDE98D
:100330000221082B00F28880DFE803F0404F545A76
:1003400060666C727D005BF8043F1A1D21D8DAF8F4
:100350000004D91C21F00301C0F58062914218D835
:10036000014400EB0A02CAF8001468683946019299
:1003700005F0DEFB019AC9F80C00013749F8082F97
:10038000B1E751F804EF1EF1040F07D908B1C2F824
:100390000034FFF745FF6FF08C0477E70EF1030C94
:1003A0002CF0030CC3F58069CC4504F10804EDD8AA
:1003B000D01844E9020E634401209FE702AA0CA969
:1003C00004A800F09CF804464FF00008464507F1E9
:1003D00008073CD1FFF724FF58E70CA904A800F058
:1003E0007CF8F0E702AA0CA904A800F079F8EAE783
:1003F00002AA0CA904A800F06DF8E4E702AA0CA96F
:1004000004A800F070F8DEE702AA0CA904A800F026
:100410006DF8D8E702AA0CA904A800F06AF8D2E7A0
:1004200002AA0CA904A800F067F8CCE70CA904A85C
:1004300000F068F8C7E702AA0CA904A800F06AF85F
:10044000C1E76FF08004BFE76FF08504BCE7414669
:1004500057E90223686805F080FB08F10108B5E759
:100460006FF0850412E700BF200C002008B5282299
:100470000021024805F01FFB002008BD28100020C5
:1004800010B5044C0F222046034905F0EFFA204630
:1004900010BD00BF511000203206000008B5012138
:1004A000034800F0FBF9034803F0B8FA002008BD48
:1004B000501000200D05000008B5FFF7D7FF40B928
:1004C000FFF7DEFFFFF7EAFF18B9BDE8084003F0C9
:1004D000F3BA08BD6FF0850070476FF08500704774
:1004E0006FF0850070476FF0850070476FF08500F2
:1004F00070476FF0850070476FF0850070476FF0B0
:1005000085007047D1E9000103F09ABA0FB40020CA
:1005100004B070476FF085007047F0B5036805467A
:10052000B3F57D7FA7B007D040F2F532934207D0F4
:100530006FF0850027B0F0BD01F0F0FA0020F9E778
:1005400000243C22214607A8CDE90244CDE9044419
:10055000069405F0B0FA3C22214617A8169405F03F
:10056000AAFAEA69019405F11C0302B30426EA6AB7
:1005700005F12C033AB30424731E012B52D8012C2D
:1005800050D80423002168680DEB030205F0D0FA6F
:1005900004281AD06FF08000CCE7002EE7D053F883
:1005A000041D3246013E0029F7D01646DFE7032638
:1005B000F5E7002CE0D053F8041D2246013C002949
:1005C000F7D01446D8E70324F5E7022E16D16E695A
:1005D000402E29D806AF33463A460121686805F017
:1005E000A7FA8642D6D1CDE9027602A944B92246BD
:1005F000019801F000FF044620469BE70021F5E743
:100600002B6A402BC6D816AACDE90423019804AA68
:1006100001F0F1FEDDE9042304460021686805F0DD
:100620009CFAE9E7012085E76FF0890082E7002066
:1006300070474D62656420544C5320332E362E345F
:100640000000000001680E4A0346914215D1C169BD
:10065000A2F11022A2F1EF1291420ED18268012A7A
:100660000BD8C26812B101698A4206D0586928B114
:100670009B691B1A5842584170470120704700BFC0
:1006800055AA00FF0D4B70B59E68A6B13046FFF726
:10069000D9FF044678B9F3686BB935690DB92046BE
:1006A00070BD2846FFF7CEFF28B9EB68B34202D1F0
:1006B0002E462D69F2E70124F1E700BF6410002007
:1006C0002DE9F041394E3468F368D4B1B468C4B14F
:1006D000002861D000295FD001FB00F5B5FBF0F0E8
:1006E000884259D1291D57D8AA070DD025F00302F9
:1006F00004321C4603E0616891424FD2A469002C89
:10070000F9D12046BDE8F0812A46F2E7891A23296B
:1007100004F12007D4E9050C1AD80123A360A0B185
:10072000C0F818C0A36903B158610023C4E90533B8
:100730003369DB0702D5FFF7A5FFA0BB2A460021DE
:1007400038463C4605F0B7F9DBE7C6F80CC0E9E7E8
:1007500002F1200804EB08032039C3E9011E2169D6
:10076000DFF84CE0DC60196144F808E0AEF1102ECF
:10077000AEF1EF1EC3F81CE001B1CB60C3E9050C7C
:1007800040B18361996901B14B6101212361C4E9E1
:100790000121CAE7F360F5E70024B2E7D4F808E0E6
:1007A000BEF1000FB2D0012005F09CF864100020CB
:1007B00055AA00FFF8B5054600283AD0364E3368F2
:1007C000002B36D0B268002A33D0834203D8726837
:1007D0001344984202D3012005F084F8A0F12004CC
:1007E0002046FFF72FFF0028F5D155F8183C012BC4
:1007F000F1D145F8180C55E90570DFB1BB68CBB9EC
:1008000055F81C2C7B68203213447B60386100B1A2
:10081000C76020220021204605F04DF9386908B153
:1008200083682BB333699B0703D5FFF72BFF0028A1
:10083000D1D1F8BD40B3836833BB426863681344C9
:10084000203363600369D4E90521236192B9B9B902
:10085000426981696261A161A2B19461A26902B138
:10086000546103B1DC602022002105F024F9D9E7AE
:100870003C46E2E79161A1690029E9D04A61E7E7D6
:10088000F160F8E7F460E9E7F36845F8083C03B184
:100890005C61F460C6E700BF6410002038B50D4607
:1008A000142200210446124805F005F911491248A6
:1008B00003F0AAF8232D1AD914F003031FBF043D37
:1008C000ED18C3F10403E4182A460021204605F080
:1008D000F2F8074B094AC3E900459C602260A2F187
:1008E0001022203DA2F1EF126560E261DC6038BDAC
:1008F00064100020B5070000C106000055AA00FFE3
:10090000882F000001000000693800004138000015
:10091000407C00008010002066000000407C000049
:10092000200C002000000000407C0000000C002093
:1009300000000000200C002018010000000C002026
:100940000800000002F01CBC08B572B61E4A1F4B1E
:100950009A601F4B83F309881E4B83F30A8883F345
:100960000B881D4B16A1D1E90001C3E9000100F07D
:10097000EFF81A4B1A498B4212D30020194B1A492F
:100980008B4218D302F084FF186850F82240586850
:1009900040F82240013298688242F5D30C33EAE7EE
:1009A0000022F8E71C6844F8220001325C68A24289
:1009B000F8D30833E4E70022F8E700BFAFF3008084
:1009C000A5EDF5FEA5EDF5FE0000000000ED00E050
:1009D000F80B002000040020F80B00201009000094
:1009E000340900003409000044090000EFF30880D6
:1009F000EFF309812DE9F00F6B46724600F06CF9B8
:100A000008B0FFF79FFFFEE708B5FFF7EFFF08B557
:100A1000FFF7ECFF08B5FFF7E9FF08B5FFF7E6FFC2
:100A200008B5FFF7E3FF08B5FFF7E0FF08B5FFF7EC
:100A3000DDFF08B5FFF7DAFF08B5FFF7D7FF08B508
:100A4000FFF7D4FF08B5FFF7D1FF08B5FFF7CEFFDA
:100A500008B5FFF7CBFF08B5FFF7C8FF08B5FFF7EC
:100A6000C5FF08B5FFF7C2FF08B5FFF7BFFF08B520
:100A7000FFF7BCFF08B5FFF7B9FF08B5FFF7B6FFF2
:100A800008B5FFF7B3FF08B5FFF7B0FF08B5FFF7EC
:100A9000ADFF08B5FFF7AAFF08B5FFF7A7FF08B538
:100AA000FFF7A4FF08B5FFF7A1FF08B5FFF79EFF0A
:100AB00008B5FFF79BFF08B5FFF798FF08B5FFF7EC
:100AC00095FF08B5FFF792FF08B5FFF78FFF08B550
:100AD000FFF78CFF08B5EFF31083012B0C4A07D109
:100AE000126ABFF34F8F511C4A424A41104608BD5B
:100AF00001F098F800B172B6126ABFF34F8F531C21
:100B00005A425A4101F08EF80028EFD062B6EDE764
:100B10000080FF0008B5EFF31083012B0B4A06D1CC
:100B2000D269BFF34F8F02F00102104608BD01F0F9
:100B300079F800B172B6D269BFF34F8F02F00102AB
:100B400001F070F80028F0D062B6EEE70080FF00F8
:100B5000584A10B5D2F8D03043F00203C2F8D03072
:100B600001F060F830B14FF050230022C3F8142197
:100B7000C3F8182101F065F828B101224E4BC3F8E3
:100B8000382AC3F878254FF47F02D2F83031D2F8F2
:100B90003421BFF34F8FC3F30B03092B05D1012A77
:100BA0001EBF0122444BC3F8782501F04AF818B162
:100BB0000E22424BC3F8E42E01F034F830B100228B
:100BC0003D4BC3F80C270122C3F810270022D300A5
:100BD00003F57F03D3F80013BFF34F8F013108D023
:100BE000D3F800130132D3F80433B2F5807F0B60E1
:100BF000EDD1EFF31084FFF78DFF00284DD0BFF348
:100C00004F8F2F4BD3F80024012AFBD1C3F80425C2
:100C1000D3F80024012AFBD1012C03D001F002F803
:100C200000B172B6FFF776FF58B1264AD36923F0B8
:100C30000103D361BFF34F8F214AD2F80034012B57
:100C4000FBD1FFF747FF68B11E4A136A23F0FF0389
:100C500043F020031362BFF34F8F194AD2F80034D8
:100C6000012BFBD1012C03D000F0DCFF00B162B6F8
:100C70000022134BC3F80425D3F80024012AFBD12A
:100C8000BFF34F8F0B49104BCA6802F4E062134365
:100C9000CB60BFF34F8F00BFFDE7FFF71BFF0028BE
:100CA000ADD1044AD2F88C3043F44063C2F88C30A2
:100CB00010BD00BF00ED00E00040005000A0035058
:100CC000009003500080FF000400FA057C220149D7
:100CD00004F0CCBE3C19002038B51D46394B3A4CC7
:100CE0005B68C3F308032360EFF303836365530674
:100CF000C4E90120E16039D502F00C020C2A08BFDA
:100D00000846014620612022304804F0AFFE25B19C
:100D1000202229462E4804F0A9FE2A4B9A6AA26591
:100D2000D96AE165986B206602F400406066586BF2
:100D3000A06602F08000E0669A62D962D3F8E420EF
:100D400024482267D3F8E810616702F04001A167E8
:100D5000C3F8E4200E2100F086FF2268D31E042B86
:100D600025D8DFE803F00F181B1E2100EFF3948352
:100D7000990704D5130702D5EFF38980C1E7EFF394
:100D80008880BEE70C21144800F06DFFEFF38883E4
:100D9000EFF3898338BD12211048F5E70B21104885
:100DA000F2E70D210F48EFE70E210F48ECE70F2A7D
:100DB00095BF142125210D480D4888BF103A01F038
:100DC0006FFBE3E700ED00E03C1900205019002024
:100DD0007019002062350000703500007C3500007D
:100DE0008E35000099350000A6350000B4350000AE
:100DF000C835000037B5084C6369984748B9E56ABB
:100E0000A847C307FCD4236A019303B0BDE8304070
:100E10001847002003B030BDF035000010B50B4C72
:100E20000020A368984780B902202369984760B9D9
:100E30004FF4E1310120A46AA04730B90121152007
:100E4000A04710B90122024B1A7010BDF035000006
:100E5000BC280020064B82B01868002382B262F3DF
:100E60000F03000C60F31F43184602B0704700BF29
:100E700038360000014BD86D704700BF8410002049
:100E8000014B186E704700BF8410002008B502485F
:100E900000F0DCFB002008BD84100020C3B2012B51
:100EA00010B509D0A3F11502012A00F2AE80002985
:100EB00000F09880002010BD4DF6C023994270D0FC
:100EC00028D8B1F5615F6FD011D8B1F5965F6DD0BC
:100ED00008D8B1F5966F6BD0B1F5166F6BD06FF087
:100EE0000700E8E7B1F5165FF9D1514B33E047F65B
:100EF0001223994262D007D8B1F5964F61D0B1F56F
:100F0000E14FECD14B4B26E0B1F5164FE7D14FF452
:100F10001D0320E0484B994255D011D8B1F5E13F6F
:100F200054D007D8B1F5614F53D0B1F5963FD6D123
:100F3000424B10E0B1F5613FD1D14FF06C730AE044
:100F4000B1F5612F48D03E4B994248D0B1F5E12F21
:100F5000C5D14FF0E86310F4E06F59D110F440416F
:100F600003D0B1F5804F56D1102110F4405403D076
:100F7000B4F5805F52D10E2410F4403203D0B2F5A4
:100F8000403F4ED101222F4880F8921000F16401B9
:100F9000C0F88C3080F8902080F8914000F0D6FFA7
:100FA00088E74FF46503D6E7274BD4E7274BD2E712
:100FB0004FF49E23CFE74FF41D23CCE74FF40003FB
:100FC000C9E7234BC7E74FF08063C4E74FF0EB73EB
:100FD000C1E74FF46B03BEE74FF07063BBE74FF020
:100FE0008053B8E71748162B18BF01464FF0FF3360
:100FF0000ABF00F1640141F8643F836600F0A6FF78
:1010000010F1100F10D0C01755E76FF0030052E732
:101010006FF008004FE76FF00A004CE76FF009002F
:1010200049E76FF00B0046E76FF0010043E700BFB0
:101030000050270000C0750090D0030000903A01D6
:1010400040420F008410002000F03A0000B013006E
:1010500000A04E0073B506461B480C4600F0B2FFD8
:10106000194D18B94FF0FF3002B070BD224631461D
:10107000284601F07AF810F1100F02D16FF001004C
:10108000F2E70028EEDB0321284600F03BFB10F1DD
:10109000100FF3D00028E5DB00230193284601A9B7
:1010A00001F00FF910F1100FF8D07830DAD0019B71
:1010B0009C42D7D801220448114601F000F90028CB
:1010C000D0DB00202C66CFE784100020F0B51B4E4B
:1010D000054691B030460C4600F074FF18B94FF049
:1010E000FF3011B0F0BD05F06043B3F1005F20D1D7
:1010F000002322462946304600F06AFF10F1100F07
:1011000019D00028EBDBF46511E0A71B402F28BFA6
:101110004027A9193A46684604F0A8FC39466846B3
:10112000FFF7D4FF0028DCD14036B442EDD80020D0
:10113000D7E70026F9E76FF00100D2E7841000201E
:1011400010B50A4C04F16400D4E9151200F0A1FDB9
:1011500001460022204600F0E7F90028AABF00203F
:101160006FF00100C4E9170010BD00BF841000201B
:101170007FB500250C46C0F808511646D0F8082166
:10118000D0F8002222F02002C0F80022104AC0F855
:10119000082300F0CFFDA560256104F14C03D3E8DE
:1011A000EF1F21F47F0121F47041C3E8E21F002A00
:1011B000F5D110222946684604F07DFC04236846D8
:1011C0008DF800300196D4E90013984704B070BD43
:1011D00010020A00044B054A1B68B3FBF2F35843A4
:1011E000034B43F0010318478010002040420F00DA
:1011F0004036000000F01F03400909D1074A02EB06
:101200008303D3F80012064A0A40C3F8002270474D
:101210000022803352F82330FFDE00BF00258450C7
:10122000F0F8FCFF430904D10123034A8340936093
:10123000704700239B60FFDE0025845000F01F03F1
:1012400040090BD1084A02EB8302D2F80012074B87
:101250000B4043F00303C2F8003270470022803392
:1012600052F82330FFDE00BF00258450F0F8FCFF69
:101270002DE9F84391F8303005460C460F6813BB52
:10128000066D46F000730365781C04D03846FFF7FE
:10129000C9FFFFF7D3FF6068411C01D0FFF7AAFF29
:1012A00094F82C30012B0ED1E06846F02066421CE9
:1012B0002E6501D0FFF79EFFA068431C03D0FFF707
:1012C000B1FFFFF7BBFF94F82FC0BCF1000F03D1B3
:1012D0002B6D43F080732B6594F82C0094F82D103F
:1012E00094F82E202B68D4F828E001430A43E668DE
:1012F000D4E90198C3F824E5C3F86C25BCF1000FCC
:1013000009D10128C3F80C75C3F8149504BFC3F8BC
:101310000885C3F810654FF47F02D2F83031D2F857
:101320003421BFF34F8FC3F30B03092B1BD12B6861
:10133000D3F8682503F26457012A08BFDA60D3F8AE
:101340006425012A0FD1082149F64046C3F800154B
:101350005A603B689BBB2B68D3F88024C3F8802479
:101360000022C3F8002500212B6894F83220C3F82E
:101370001011D3F81001C3F82011D3F82001C3F8DD
:101380002411D3F82401C3F84411D3F84401C3F85D
:101390005811D3F8581143F307335201002BD2B23E
:1013A00013DB0C49C81880F800230122580903F008
:1013B0001F0302FA03F341F82030BDE8F88301204F
:1013C000FFF708FF013EC4D1C5E7034903F00F034F
:1013D000CA54F2E700E100E014ED00E000F01F0362
:1013E00040090BD1084A02EB8302D2F80012074BE6
:1013F0000B4043F00203C2F80032704700228033F2
:1014000052F82330FFDE00BF00258450F0F8FCFFC7
:10141000F8B505462B6D046803F48223B3F5805FAD
:10142000D4F8000205D009B100232B626FF07600DA
:10143000F8BDD4F80463C4F8086309B9830647D437
:10144000D4F8003223F02003C4F800324FF4A11383
:1014500005F15007D7E8EF1F1943C7E8E01F002840
:10146000F8D112B9AB68002B59D12E4BC4F8083310
:1014700001236360D4F84431002BFBD00023C4F86F
:101480004C31D4F84C21C4F81031D4F81021C4F8F0
:101490004431D4F844212A6D12F400421BD12A624F
:1014A000204600F047FC0023EB606B61D7E8EF3F7C
:1014B00023F47F0323F47043C7E8E23F002AF5D109
:1014C00026F4202626F404760020C4F80463AFE74F
:1014D0004FF48033BCE7C4F84C31D4F84C21EA69AE
:1014E000C4F834250522C4F83825C4F81031D4F8DE
:1014F00010310123E362D4F81031002BFBD000221D
:10150000C4F81021D4F81031D4F84C310BB1D4F810
:101510003C352B62C4F84C21D4F84C31C0E7012390
:101520006360D1E710020A002DE9F74304460E4636
:1015300094F84C1091460430002970D1502204F0E8
:10154000BAFA336963607369E363B36903B1013B5A
:101550002364336A042B81BFF369E36100232362B0
:1015600096F83130B9F1000F2FD083F001084FEA1F
:1015700008281BB1236D43F001032365012325686F
:1015800084F84C30D5F84C21C4F80890FAB93146AB
:101590002046FFF76DFE0822002325688DF80730EE
:1015A000C5F800250DF10702C5F84425C5F84835F2
:1015B00001230A26AB60EB60D5F8583193BB0120BC
:1015C000FFF708FE013EF7D122E0C846D1E7082226
:1015D0006427C5F800256B60D5F84431EBB9D5F820
:1015E0002431D3B90A20FFF7F5FD013FF4D10023E0
:1015F000C5F84C31D5F84C21C5F81031D5F810217B
:10160000C5F84431D5F84421C5F80035002FBED1C6
:101610006FF08B0003B0BDE8F0830127E7E76FF0C0
:101620007700F7E70020C5F820018145D5F8203183
:10163000054B08BF0346226848EA0303C5F80005C6
:10164000C2F80433E6E700BF10020A0003682B4A21
:101650002DE9F041C3F8082343F30733002B044678
:101660000DDB01215A0903F01F03994002F1200309
:10167000234A42F82310BFF34F8FBFF36F8F01222D
:1016800020461146FFF7C4FE0121204600F028FD48
:10169000256D2368E901D3F80C05D3F81485D3F838
:1016A0000865D3F8107509D54FF0FF32C3F80C2543
:1016B000C3F81425C3F80825C3F81025AA0115D5C9
:1016C000431C01D0FFF78AFEB8F1FF3F02D040462D
:1016D000FFF784FE290109D57A1C02D03846FFF7AE
:1016E0007DFE731C02D03046FFF778FE002384F89D
:1016F0004C302365A360BDE8F08100BF10034A00B1
:1017000000E100E0F8B50646044656F8505B071DB8
:10171000D6E8EF3F43F48052C6E8E02F0028F7D127
:10172000DA0468D44B0702D5E369002B66D0354B49
:10173000C5F808330823C5F800350023C5F8103173
:10174000D5F81021C5F84C31D5F84C21C5F84431F5
:101750000A03D5F844318B0303F4804302F40052AA
:101760004903134301F400410B43D6E8EF2F1A431A
:10177000C6E8E12F0029F8D1E368C3B9A3687BB9B3
:10178000236DD80435D5D6E8EF3F23F47F0323F447
:101790007043C6E8E23F002AF5D16FF00B00F8BDB8
:1017A0000321384600F0A1FAE368002BE8D0D5F811
:1017B0000433590710D5A36873B1236D1A030BD5F1
:1017C000D6E8EF3F23F40023C6E8E23F002AF7D132
:1017D0000621384600F089FA236DDB0409D5D5F8D7
:1017E0004C310BB901232B60A36813B1054BC5F82D
:1017F00004330020D3E76FF00F00D0E74FF0FF3045
:10180000CDE700BF10020A0072B6024A1368013326
:1018100013607047B8190020034A1368013B136036
:1018200003B962B6704700BFB8190020003A18BF6C
:101830000122003918BF012103688900074841EAE5
:101840004201186359605A6842F001025A60BFF3BE
:101850004F8FBFF36F8F0020704700BF04AAFF00B7
:101860000722024BC3F80423704700BF003000502A
:10187000084BD3F80801D3F80021003818BF012025
:1018800080000AB140F00100D3F804310BB140F000
:1018900002007047003000500022074BC3F80021BF
:1018A000D3F80011C3F80421D3F80411C3F80821B8
:1018B000D3F80831704700BF0030005000231720D4
:1018C000094A03F5C0710133202B42F82100F8D1F9
:1018D00000231720044A03F5E0710133202B42F85E
:1018E0002100F8D1704700BF0030005010B59DF8BE
:1018F0000840C00B43EA0423064CC90B43EA021319
:10190000884200D910BDC2B202F5C07244F822303C
:101910000130F5E70030005010B59DF8084000F1A7
:10192000604043EA042301F16041074C400B490B3E
:1019300043EA0213884200D910BDC2B202F5E07238
:1019400044F822300130F5E700300050C0F30E03B8
:10195000C3F50043B3FA83F3C3F11B03064AC0F394
:10196000C730DBB240F4807043F48073C2F80005E6
:10197000C2F80435704700BF0030005043030148EF
:1019800018447047FF1FF81F054BC0F307300902CA
:1019900041F0300100F5007043F82010704700BF9F
:1019A00000300050044BC0F30730090200F500700E
:1019B00043F82010704700BF0030005008B5FFF713
:1019C00057FF044B162118600348BDE8084000F09B
:1019D0004AB900BFF01F0020463600000C22014922
:1019E00004F044B8F01F002010B501F080FD04465B
:1019F00090B902F0C1F8044680B90A4A2E21D36892
:101A0000094823F008031B041B0C43F0BF6343F495
:101A10000033D36000F027F9204610BD45F223546F
:101A2000FAE700BF00ED00E05C360000024B1860F2
:101A3000024B00201960704700200020FC1F00208E
:101A40001FB5274C426923685A6282699A62C2694B
:101A5000DA62026A1A63426A5A63826A9A63C26AE3
:101A6000DA63026B1A64426B5A60826B9A60C26BD3
:101A7000DA60026C1A61426C5A61826C9A61C26CC3
:101A8000DA61026D1A62826D5A65C26D9A65026FE3
:101A9000DA65026E1A66826E5A66426F9A66EFF3D4
:101AA00088825A64EFF389829A644268DA64EFF3B9
:101AB00094821A65026801A81A67FFF78FFF2368EE
:101AC000019ADA6601221A70064B1C6864086400E9
:101AD000204621462246234604F0B1F804B010BD4A
:101AE00000200020FC1F002000B5A1B001A8FFF7D6
:101AF000EDF8029B63B15B060AD4019B23F002035D
:101B0000052B05D1044B1B6813B101A8FFF798FF03
:101B100021B05DF804FB00BFFC1F0020BFF34F8F16
:101B20000549064BCA6802F4E0621343CB60BFF379
:101B30004F8F00BFFDE700BF00ED00E00400FA0595
:101B4000F8B543680C2B01D00220F8BD4B68042B7C
:101B5000FAD14FF0FF3304680D6821682B6000292B
:101B6000F2D0A268002AEFD00623012001F011FC78
:101B70000028E9D16168294ED6E90037994244D35B
:101B8000A2681F4401EB020CBC453ED803F17F4321
:101B900003F50043B3F5805F206833D20A4393070F
:101BA00039D11F4B9C4536D84FF47F03091AA268E0
:101BB0000F1812B900202860C7E7EFF31086D3F89A
:101BC0003021D3F834C1BFF34F8FC2F30B02092A7F
:101BD00002D1012E00D072B63F68D3F83021D3F87D
:101BE00034C1BFF34F8FC2F30B02092A04D1BFF3F4
:101BF0004F8F012E00D062B6A26840F8047B043AF1
:101C0000A260D4E703F032FFD4E70130042806F1E4
:101C10000806B1D198E7032097E700BF8C36000093
:101C20000090FF004FF47F03D3F83001D3F8343134
:101C3000BFF34F8FC0F30B00A0F109035842584186
:101C400070474FF47F02D2F83031D2F83401BFF33D
:101C50004F8FC3F30B03092B03D1431E5842584146
:101C6000704700207047FFF7C5B8012070476FF03C
:101C700003007047002070476FF00300704700209A
:101C80007047022814BF6FF0030000207047FFF771
:101C90001DBA70B540F2FF1501EB8202914200D1EE
:101CA00070BD51F8044BC4F30803640CAB4208BF89
:101CB0004FF0FF33032CF1D8DFE804F002040608EC
:101CC0000360EBE74360E9E78360E7E7C360E5E7CC
:101CD0000346D0F8580130B931B9D3F820010038A3
:101CE00018BF012070470120704730B504460D46EB
:101CF00085B010220021684603F0DDFED4E9001310
:101D000068468DF80050984705B030BD7FB5044651
:101D10000E46154600211022684603F0CCFE012332
:101D200068468DF80030CDE90165D4E90013984785
:101D300004B070BD10B50446FFF766FDD4F8583105
:101D400033B1D4F8043313F4800308BFC4F800356A
:101D5000BDE81040FFF760BDD0F8583133B1CB6C0F
:101D6000C3F30032DB0458BFC0F8002570472DE9EB
:101D7000F74F866804460D463EB113F0020604D0C4
:101D8000C36B002B00F095800126276D17F010071C
:101D900040F08F804FF00109AB180193019BAB42DB
:101DA00000F0898005F060439B46E26BD4F8008028
:101DB00082B9BBF1005F40F087809246FFF724FDB7
:101DC000216D404601F00101FFF782FF28B9FFF7BE
:101DD00023FDEAE74FF0010AF0E7A26CAB46002AC8
:101DE000BCBFD8F84C25A264BAF1000F07D0D4E9E3
:101DF0000F1228788854D4E90F2102EB010BBBF1B4
:101E0000000F03D0C8F844B5C8F848950023C8F8B7
:101E10002031D8F82011C8F85831D8F85811C8F82E
:101E20005031D8F850110821C8F80015BEB14FF450
:101E30008002C8F80423C8F80890FFF7EDFCA368F7
:101E4000002B3FD1236D1B073CD55034D4E8EF3F26
:101E500023F00803C4E8E23F002A2AD0F6E7C8F8D6
:101E60000890FFF7D9FC216D01F001014046FFF712
:101E70002FFF0246D8F84C05D8F844355AB99B458F
:101E8000F4D004F1040AD1B1FFF7BEFC514640463C
:101E9000FFF762FFD1E79B4504F1040AF3D1002864
:101EA000F1D1FFF7B1FC51464046FFF755FFFFF770
:101EB000B3FC4FF0FF37384603B0BDE8F08FC8F8E9
:101EC0000C90E1E7013569E76FF01507F3E770B5AE
:101ED000CE6C0D4606F001010446FFF7F9FE38B955
:101EE0004FF4800346F00406EE64C4F8043370BD7A
:101EF000D5E90A365AB1296CEA6B761A964228BFA0
:101F0000164619443246A86B03F0B0FDAB6B4FF098
:101F1000FF326A641BB1C4F84435C4F84865002335
:101F2000C4F82031D4F82021C4F85831D4F858210D
:101F3000C4F85031D4F850310823C4F800354FF4B8
:101F40008003C4F804330123A360D0E737B590F8C9
:101F50004C3004463BB3036B4BBB0268C2F8003500
:101F600083680BB10B6943602046FFF781F90822B3
:101F7000002324688DF80730C4F800250DF107020E
:101F8000C4F84425C4F8483501230A25A360E3605A
:101F9000D4F8583173B90120FFF71CF9013DF7D18E
:101FA0006FF08B0001E06FF0760003B030BD6FF092
:101FB0000F00FAE70020C4F82001D4F82031C4F85B
:101FC0000005F2E790F84C00003818BF0120704778
:101FD0002DE9F04704460D4698461646D0F8009085
:101FE000002A68D087685FB953B9076B002F65D1A5
:101FF0000263FFF7BCFE054627632846BDE8F0876D
:1020000018F0030F07D04346324629462046BDE864
:10201000F047FFF7ACBE05F06043B3F1005F07D0B7
:10202000E36B13B118F0040F14D06FF00C05E4E764
:10203000236DDB0702D518F0040F42D1FFF7E4FB54
:10204000226B9AB9C4E90B564846211DFFF73FFFA2
:10205000002527E0FFF7D8FB236B3BB9236D012256
:1020600043F00203C4E90B562365EDE7A36BE3B924
:1020700018F0040F19D0E36A03F06043B3F1005F76
:1020800016D1236DC4E90D5643F0100323650A24CD
:10209000D9F85031C3B90120FFF79CF8013CF7D1C2
:1020A0006FF08B05FFF7B8FBA7E76FF00F05F9E7B7
:1020B0004FF0FF35F6E76FF006059EE76FF00F056E
:1020C0009BE74FF0FF3598E70023C9F85031D9F866
:1020D0005031002DBCD0C9F84455C9F84865B7E760
:1020E000F8B50468036BD4F804630546C4F80863C4
:1020F00023B96FF07600C4F80463F8BD00F1500313
:10210000D3E8EF0F40F00800C3E8E20F002AF7D150
:102110000123E36001B3296D01EA03073946204634
:10212000FFF7D6FD0028FAD0FFF76EFBC7B9D4F849
:1021300020314BB10123E360D4F85831002BFBD0A0
:102140002046291DFFF708FEFFF766FB0023C4F8B1
:102150002031D4F820212B630020C4F80463CCE79D
:10216000D4F85831002BEBD1EEE72DE9F84F056894
:10217000036DD5F804A313F4802804460F461646D1
:10218000C5F808A340F0928001F06042B2F1005F10
:1021900040F08F80C26852B18268002A75D1D5F8AC
:1021A0001021002A71D0C5F81081D5F81031226AAB
:1021B000C4E90376002A47D09642E16933D84FF04C
:1021C000000932463846C4E9039903F04FFC226AFD
:1021D000E069921B2262811903F012FCA368BBB173
:1021E000236D04F1040B990417D55034D4E8EF3F64
:1021F00043F48023C4E8E23F002AF7D1324639464F
:102200005846FFF783FD4A4659462846FEF7B0FF79
:102210004046C5F804A3BDE8F88F32463946584613
:10222000FFF774FDF4E7384603F020FC236AA3624D
:102230000023236204F15003D3E8EF1F41F400218F
:10224000C3E8E21F002AF7D1A16A2369E2685B1A9A
:102250000A44C5F83425C5F83835236DDA04D7D5D6
:102260005034D4E8EF3F23F48023C4E8E23F002A4F
:10227000F7D101232B60D5F84431002BC8D00023BF
:10228000C5F84431D5F84431C2E76269A2B95B04AC
:10229000C4E90576C5F83475C5F83865B8D5D5F8FC
:1022A000003243F02003C5F80032B1E76FF0760842
:1022B000AEE76FF00C08ABE76FF00F08A8E7FFF789
:1022C000A7B88368A3B90368D3F80025082A06D005
:1022D00011B1D3F83C350B606FF077007047D3F83D
:1022E000102142B111B1D3F83C350B60002070478A
:1022F0004FF0FF3070476FF00F0070474B6830B5FC
:1023000013F01F052DD102680C681068C0F3072078
:10231000844226D25068556094600C7C23F01F03E1
:1023200004F001041C438B7CDB0003F018031C4306
:102330004B7C5B0003F006032343D3608B68013BB7
:1023400023F01F04CB685B0003F00E03234343F02C
:10235000010313615060BFF34F8FBFF36F8F2846A7
:1023600030BD0120FCE7036800205A68C9B25860FC
:102370009960D86018615A60704770B505460024AE
:1023800003681E68C6F30726B44201D1002070BD61
:1023900021462846FFF7E7FF0134F5E7C003704701
:1023A000C00300F5FF407F307047002070471F20BA
:1023B00070474FF40040704700F57F40C030400345
:1023C0007047402070475F2070474FF400507047BF
:1023D0000020704708B5FFF787FB72B620BFFDE706
:1023E000034610B10020187070474AF2C53070479C
:1023F0000020704770470346012B084670B5114610
:1024000007D0042B09D0002B31D1BDE87040FFF775
:1024100097BBBDE8704000F02CB84368082B01D092
:10242000022070BD5468042CFAD14FF0FF330568C8
:102430001668296833600029F2D06B68002BEFD052
:1024400026237422012000F0A4FF0028E8D12246B0
:1024500023230120696800F09CFF04460028DFD197
:10246000D5E90001FFF7E2FA30602046D9E7032002
:10247000D7E743680C2B01D0022070474B68042B30
:10248000FAD10B6801210268196011680131F3D19A
:102490000221906819600028EED118607047000092
:1024A00030B50C46154685B038B139B1FFF7DBFBC6
:1024B000041E03DA204605B030BD044640F60D2365
:1024C000ADF80E3009230B4901A805F00F028A5C14
:1024D0002D091A54013B012BF7D147F630030C218B
:1024E000ADF80430FFF7BFFB0028B4BF0446241842
:1024F000E0E700BFAC36000007B51A4B83F30A884B
:10250000194800F0DFFF48B100F03AFE00F00EFC81
:1025100000F0D2F8002003B05DF804FBFFF764FA86
:102520000028F1D121211148FFF79DFBFFF750FF53
:102530000028E9D10DF10700FFF752FF0028E3D191
:102540009DF807301BB1FFF753FF0028DCD1FFF7E0
:1025500051FF00F01DFF35210548FFF784FB00F017
:10256000ABFDD3E700040020BC190020BC360000FE
:10257000DD36000030B5094C02466168002308468C
:1025800040B105686D68954205D11BB182686060F5
:102590009A60816030BD03468068F1E7401A0020F0
:1025A00038B504462AB10B689B68DB0512D50020BC
:1025B00038BD0B4B1D680DB900F0E2FD00222B6801
:1025C000996934338A4203D053F8040FA04204D1EE
:1025D0009142ECD16FF0FC00EAE70132F2E700BF74
:1025E000481A002070B504460E46154600213022D8
:1025F0000C3003F060FA064B20461B68A66063604F
:10260000656100F0A9FE00232061236070BD00BF5A
:10261000481A0020034B186810B1006800B14068E8
:10262000704700BF481A0020064B10B51C680CB953
:1026300000F0A6FD23689B6813F4406F14BF0120CF
:10264000002010BD481A00202DE9F04107469046B1
:102650000C4621B96FF080042046BDE8F0814B00A4
:10266000F8D5144B01F01F0253F82250002DF1D081
:102670002B685E68FFF7D8FF294602463046FFF711
:102680008FFF88B9C4F30721284600F07BFD04467C
:102690000028DFD100F06DFE064640B142462946D3
:1026A000FFF7A0FF3E60D7E76FF08104D4E76FF03B
:1026B0008204D1E7C01900202DE9F04100F058FE56
:1026C0000023134E134F73607B6000F0EFFADFF8C6
:1026D0004880304600F022F80446A0B139468023F5
:1026E000424600F0ABF80546204600F081FD206828
:1026F000211D00F047FB08B100F042FD29462046AD
:1027000000F080FAE5E7BDE8F04100F091BA00BFC3
:102710004C1A0020401A0020C0190020F8B50546C8
:1027200008B900F02DFD404E346814F1310F78D80F
:102730003E4B196804F130038B4272D2E369A269FF
:1027400003EB83030E321344226A02EB420213446A
:10275000626AC2EBC20213449B00E31801D29942A1
:1027600001D200F00DFD2368314A1B0C1B0493427B
:1027700001D000F005FD2388B3F5817F01D300F07F
:10278000FFFC6368002B01DA00F0FAFCD4E90A23AD
:102790009A4201DD00F0F4FCA36813F4406F22D1EB
:1027A000244A176807F120031360234A12689342F2
:1027B00001D900F0E5FCE369A26903EB83030E3263
:1027C0001344226A3C6002EB42021344626AC2EB89
:1027D000C2021344326802EB83026B683260FB6111
:1027E0006F603846F8BDA26A002A04DAE36A002B5B
:1027F00001DA9A4201DD00F0C3FC6F68002FCFD0F0
:102800003B689A6812F4406F09D0E16A9A6A914273
:1028100005DBA26ADB6A9A4201DC00F0B1FCFF69C9
:10282000ECE70027DDE700BF241100201C37000083
:1028300000005F5F20110020183700002DE9F74FDE
:102840000F4690460646009300B109B900F098FC87
:10285000D6F800A0DAF818200AF1380303EB820B4F
:10286000DAF81C40204B1D6854B10C2202FB0454C2
:102870001C601E4B1B689C4201D900F081FC2C4659
:1028800025464FF00009DAF81C204A4500D91CB94A
:10289000002003B0BDE8F08F142303FB09B200232E
:1028A000C5E900269268AB60930516D5B8F1000F14
:1028B00002D0009B802B03D0019200F061FC019AB2
:1028C00012F0E00FD0B202D158F820201AB10190D6
:1028D00000F056FC019848F820507A6809F1010987
:1028E000AA607D600C35CEE71C1100201437000073
:1028F0002DE9F04F93B000935E4B0746D3F800B03C
:102900000BB2002B0D461646C1F30269C1F3024A11
:1029100004DA6FF0800013B0BDE8F08F8B42C36023
:1029200001D10020F7E709EB0A03042BF1D8CC0F03
:1029300064014FEAC90831464246DBF8040044F01E
:10294000020300F026FD01460028E2D1202202A861
:1029500003F0B1F84246314602A84FEACA0603F036
:1029600085F832460099DBF8040044F0060300F0D5
:1029700010FD80460028CCD1014620220AA803F091
:102980009AF8324600990AA802AE03F06FF833466F
:1029900008F10108C14514D91A46C4460DE0D2F821
:1029A00008E0D16818687144884203D25968084425
:1029B0008645AED30CF1010C0832CC45EFD108337B
:1029C000E6E715F0006F18BF20241022002107F160
:1029D0001C0003F070F807F118081022002107F11D
:1029E0002C0003F068F808EB890944F00203C8459D
:1029F00012D1202C27D1002D02DBC5F3C0456C017C
:102A000007F128050AAE05EB8A0A44F0060455458D
:102A10001BD1009BFB6784E77268DBF8040056F863
:102A2000081B019300F0B5FC00287FF472AF56F844
:102A3000042C019B48F8042F56F8082CC8F83000E5
:102A4000C8F82020D3E70024DAE77268234656F856
:102A5000081BDBF8040000F09CFC00287FF459AF51
:102A600056F8043C45F8043F56F8083C28642B63AC
:102A7000CDE700BF481A00202DE9F0411F461A4B50
:102A80000D461646D3F8008000F08EFB044608B9C8
:102A900000F076FBE368002B01DA00F071FB032DF8
:102AA00001D900F06DFB04EB8504E569E36CED1AD8
:102AB00016D006233A463146D8F8040000F069FCE7
:102AC00008B100F05DFBBD4228BF3D46E36CE16B01
:102AD0002A461944304602F0C9FFE36C2B44E364F4
:102AE0002846BDE8F08100BF481A00202DE9F041DA
:102AF0001D461A4B0F461646D3F8008000F054FBD3
:102B0000044608B900F03CFBE368002B01DA00F052
:102B100037FB032F01D900F033FB04EB8704E36A92
:102B2000E26E9B1AAB4201D200F02AFB02232A4636
:102B30003146D8F8040000F02CFC08B100F020FB6E
:102B4000E36EE06D2A463146184402F08FFFE36ED3
:102B500000202B44E366BDE8F08100BF481A002046
:102B60002DE9F04105464FF001080E4E0E4B376837
:102B70005C681CB928463760BDE8F081226893681C
:102B800013F400700CD16369012B09D0D368346051
:102B900023B19847002801DA00F0F2FAC4F8148053
:102BA000E469E6E7481A00204C1A002070B5044694
:102BB000D0B18368C3B11A68B2B15D68A5B10C4BDE
:102BC000A86168691D6020B92B68DB684BB90123D7
:102BD0006B61A36804F10C001B68BDE870401B69C1
:102BE000184798470028F2DA6FF0800070BD00BFE8
:102BF000481A00204268024B08461A60704700BF1E
:102C0000481A00200022036810B5C0E905229A681E
:102C1000044612F4406F07D0120503D5D3E90A0128
:102C200000F034F8014B1C6010BD00BF481A0020B2
:102C300038B5124B1B681C68A36813F4406F01D1B0
:102C400000F09EFA00F05EF9226B23690C491344F0
:102C500023F00703A3F1080543E9021185F309886E
:102C6000073222F0070282F30B88BFF36F8F054B08
:102C7000E268054900F069FC002038BD481A0020D0
:102C8000A5EDF5FEF80B0020612B0000014BC3E918
:102C900000017047541A0020034BD3E900308342EF
:102CA000C8BF0020704700BF541A002008B500F0CC
:102CB0001DF9034B986000F01FF980F3888808BD68
:102CC00000ED02E0EFF308807146EFF30982EFF3C5
:102CD0000B830CB406B400F00FFA8646009900F09E
:102CE000080001F00801401A02DC12DB04B0704752
:102CF0001EF020031CBF2DE9F00FBDF1080D0A4C9A
:102D0000254626462746A046A146A246A34630B4FD
:102D1000704704B030BC1EF020031CBF1DF1080D2D
:102D2000BDE8F00F04B07047A5EDF5FE084BDA687A
:102D300082F07F4282F47F0242F48042DA60002215
:102D40001A765A76DA76DA77602283F8222070478C
:102D500000ED00E0009A0A4B9A420FD10122904305
:102D60000146024603460446054606460746804697
:102D7000814682468346844686460447FEE7000035
:102D8000A5EDF5FE2DE9F041044618B943F6DA3019
:102D9000BDE8F0810029F9D08368002513F4406F65
:102DA00014BF01230023134F43F00203DFF84880D0
:102DB0000B6000F13806236AAB4201D80020E7E738
:102DC0001421A369E26906EB830301FB02330C22A1
:102DD0006A4399188968090709D59B58BB4201D0F5
:102DE0004345D3D1186810B10121FEF7CDFD01355F
:102DF000E1E700BF341100202C11002070B5324CE7
:102E000086B03248FFF7B9FA236801255A1C0193AE
:102E10002F4B2260DA681B694FF44076039300233E
:102E20002A4801A902920495ADF814608DF8163075
:102E3000FFF764FA18B143F6DA3006B070BD2368C4
:102E40008DF816005A1C0193224B20480293224B06
:102E500001A9CDE903352260ADF81460FFF74EFA01
:102E60000028E8D123688DF816005A1C01931B4BEB
:102E7000164802931A4B01A9CDE903352260ADF83B
:102E80001460FFF73BFA0028D5D123688DF81600AF
:102E90005A1C0193134B0D480293134B01A9039342
:102EA0000223049340F201132260ADF81430FFF7BF
:102EB00025FA04460028BED12A4629460348FEF7D3
:102EC000B5FC2046B9E700BF5C1A0020281100209D
:102ED0002037000000380000405E000000090000BC
:102EE00000090000000C0020200C0020014B186895
:102EF000704700BF20370000014B1B6818687047FF
:102F000020370000014B1B685868704720370000CD
:102F100008B5FEF753FDFEF7BFFC0A4B5A68103A9E
:102F2000D3B2120609D401215A0903F01F039940B4
:102F300002F16003044A42F82310BDE8084000F0A3
:102F40001FB900BF00ED00E000E100E00020034BEE
:102F5000D8765A6A42F470225A62704700ED00E057
:102F60000349044BCA68002092B21343CB607047F8
:102F700000ED00E00800FA05064BD3F8D02022F05F
:102F80000102C3F8D020D3F8D02042F00202C3F8E7
:102F9000D020704700ED00E037B50124FEF78EFC2D
:102FA000164D2246052347F6FF7100200094FEF7D8
:102FB0009DFC224607234FF0005011490094FEF774
:102FC000ABFCD5E90101072300220094FEF78EFC3B
:102FD000072300220B490C480094FEF79DFC296949
:102FE000E8680139FEF7B2FCD5E9050106230022A5
:102FF0000094FEF77BFC002003B030BD20370000BA
:10300000FF7F0020FFFF03200080002038B5002450
:10301000104D002155F8040B0134FEF7C3FC1D2CA4
:10302000F7D1002001220C4BC3F88004C3F884249C
:10303000C3F8C004C3F8C4244FF47F03D3F830218D
:10304000D3F83431BFF34F8F40F20112034BC3F872
:10305000402538BD3C370000003000500090035040
:1030600000224FF0FF300D4B02F1A0010132102A77
:1030700043F82100F8D1D3F88022002022F0080282
:10308000C3F88022D3F88022D3F8802222F4007281
:10309000C3F88022D3F88032704700BF00E100E01F
:1030A00008B5FEF7DDFB0822024BC3F880211A6049
:1030B000002008BD00E100E00122014B1A607047CA
:1030C000601A002010B50446094B2289186861680F
:1030D0000623406800F05DF928B9064B1B68012BF8
:1030E00001D1FFF797FA6FF08603236010BD00BF90
:1030F000481A0020601A002001F00C0370B50C2B58
:103100000CBF154605464A060C461ED58B0658BF11
:103110002835AB6913F8026C84F00803C3F3C003CD
:10312000C6F38012934201D000F02AF816F0A00FE7
:103130001CD176B1032E15D032461C210D48FFF765
:10314000AFF96FF083032B600AE000F019F8202636
:10315000E2E7FFF7B1FA04460146074800F0F1F94B
:10316000204670BD2846FFF7ADFFF9E732461F2124
:103170000248E4E7B0370000F80B0020CC3700002D
:10318000FFF728B903689A68DB6812F4806F05D1ED
:103190008B422CBF00206FF0FA0070478B420CBFAF
:1031A00000206FF0FA00704710B500F0D8F8044620
:1031B00000F0E6F850B9FFF72DFAA3685B681B68CA
:1031C0005B68834218BF0024204610BD0024FBE743
:1031D00038B5054648B1FFF75FFDB5EBD07F044633
:1031E00001D0FFF7CDFF204638BDFFF713FAF4E713
:1031F00070478230012808B506D8FFF715FA18B9CC
:10320000BDE80840FFF7BCBF08BDF8B505460E464F
:10321000FFF7CAFF044608B9FFF7B2FFA7680FB966
:10322000FFF7AEFFE368991C4BD05A1C26D1002E45
:1032300044D016F1820F19D1022301252360EFF348
:10324000108772B631462046FFF7D4FC064687F356
:1032500010882368022B1CBF0023236025B10023A4
:103260002046236000F08EF83046F8BD16F1830F3B
:10327000E2D0FFF785FF00250026E0E7002BF8DB12
:10328000002304F1280252F8041F19B1E16F106CF9
:10329000194448600833202BF5D13B689D6815F42C
:1032A000007502D002230125236016F1810FC6D1DB
:1032B0006369002BC3DBFFF763FFC0E72E460025E1
:1032C000F3E70125D8E708B5FFF784F86FF083002E
:1032D00008BD2DE9F3410E46174698460546FFF70F
:1032E000A3F9FFF775FF2946024601A8FFF7ACF9DD
:1032F000044660B943463A4631460198FFF7F8FA6A
:10330000044640B16B0002D5019800F03BF820461E
:1033100002B0BDE8F0810198FFF748FC0122019B53
:1033200004461A60F3E740F20110704770B5054695
:10333000FFF77AF906462846FFF71CF9044608B954
:10334000002070BD014632462846FFF729F90028C3
:10335000F6D12368D868F4E74FF480507047B0F591
:10336000805F03D1EFF30B808038704700207047F7
:103370007047EFF30B8000F1800383F30B887047F5
:1033800000207047EFF30B83803B83F30B8870477B
:1033900070472DE9F0410F461546002A5BD0002901
:1033A00000F08D8003F00602062A57D09A0740F1FC
:1033B000868008249B0648BF44F01204860758BF45
:1033C00044F00404C00709D5EFF39483D9074CBF38
:1033D00044F0040424F0040444F012042246294674
:1033E000384602F01BFAB0BB47E800F205EB0708CD
:1033F000110E120208F1FF3646E800F34FEA13609F
:103400005AD51B0258D5884256D047E800F546E801
:1034100000F6FEF7CAFF2D0E85424FEA166628D346
:10342000FEF7C5FF864224D82846FEF7B9FF22469C
:10343000C7F101010144384602F0F0F9E0B301356B
:10344000AE420DD83046FEF7A9FF2246A8EB000198
:1034500002F0E4F980B30020BDE8F0810124A9E77F
:103460002846FEF79BFF0746FEF7A3FF22460146CC
:10347000E1E7FEF7A6FF85421ED3FEF7A4FF8642D2
:103480001AD82846FEF77AFA2246C7F1010101440C
:10349000384602F0C3F978B10135AE4203D8304660
:1034A000FEF78AFFD1E72846FEF786FF0746FEF7BC
:1034B0008CFF22460146EBE76FF07F00CCE74CF231
:1034C000DA20C9E710B50446FFF756FDFFF764FDA3
:1034D00010B143F6DA3010BDFFF798FD0028F8D19F
:1034E000FFF78CFC0028F4D102232360F3E708B532
:1034F000FFF72CFD10B143F6DA3008BDFFF730FDC1
:103500000028F8D100F01CF80028F4D162B6FDF7CD
:1035100085FCFFF7A5FD0028EDD1FFF7C1FD0028D0
:10352000EBD0E8E7EFF30880EFF309812DE9F00F26
:103530006B467246FDF7D0FB08B0FFF7E9FCFEE7EB
:10354000704704460D46A546284783F308889646EB
:103550000222EFF31483134383F31488BFF36F8FB6
:103560000847464154414C204552524F523A2000A0
:10357000486172644661756C740D0A004D656D4D4D
:10358000616E616765206661756C740D0A00427535
:10359000734661756C740D0A005573616765466109
:1035A000756C740D0A005365637572654661756CC0
:1035B000740D0A0052657365727665642045786300
:1035C000657074696F6E2000506C6174666F726D07
:1035D0002065787465726E616C20696E74657272B4
:1035E00075707420284952516E293A20000000005D
:1035F000550E00006B1C0000411100008D0E0000F4
:10360000831C00008F1C0000551000006F1C000080
:10361000750E0000810E00009D0E0000751C00005C
:10362000791C00007F1C0000010000000E00000259
:10363000000000010F00000304020202000000006D
:103640000338FDD87047506C6174666F726D204509
:103650007863657074696F6E3A0D0A00416C6C2076
:1036600070696E732068617665206265656E20639F
:103670006F6E66696775726564206173206E6F6E28
:103680002D7365637572650D0A0000000002FF006E
:103690002C0000003001FF00080000004001FF0086
:1036A0000C0000000881FF00F802000030313233C6
:1036B0003435363738394142434445461B5B313B4C
:1036C00033346D426F6F74696E672054462D4D2000
:1036D00076322E322E301B5B306D0D0A001B5B31B3
:1036E0003B33346D5B536563205468726561645D80
:1036F0002053656375726520696D61676520696E29
:10370000697469616C697A696E67211B5B306D0D44
:103710000A00000090120020781200201802000019
:103720000080000000800000FF7F0F00007C000090
:103730000080000000800F00FFDF0F0000400050FD
:10374000005000500080005000A0005000B0005019
:1037500000E0005000F00050000001500010015047
:103760000040015000500150007001500080015095
:1037700000B0015000C0015000D0015000E00150E5
:1037800000F00150000002500010025000200250D2
:103790000030025000400250006002500080025091
:1037A00000A00250009003500025845000A0035058
:1037B000556E6B6E6F776E2053504D2053564320DD
:1037C0007265717565737465643A2000556E6B6E31
:1037D0006F776E20535643206E756D62657220724E
:0B37E00065717565737465643A200024
:103800000348044B834202D0034B03B1184770476F
:103810001812002018120020000000000548064B76
:103820001B1AD90F01EBA301491002D0034B03B1BE
:1038300018477047181200201812002000000000DE
:1038400010B5064C237843B9FFF7DAFF044B13B1E8
:103850000448AFF300800123237010BD201900201D
:10386000000000002C5E000008B5044B1BB10449A9
:103870000448AFF30080BDE80840CFE70000000037
:10388000241900202C5E0000A3F5803A704700BF89
:10389000174B002B08BF134B9D46FFF7F5FF002188
:1038A0008B460F461348144A121A02F004F90E4BC5
:1038B000002B00D098470D4B002B00D098470020DC
:1038C000002104000D000D48002802D00C48AFF381
:1038D000008002F01BF820002900FEF70DFE02F028
:1038E00001F800BF00000800000000000000000018
:1038F000F80B002018120020C02800200000000053
:1039000000000000009A074B9A4208D110B502F05F
:10391000F5F802F021F806BC96460C46744702F012
:1039200031F90000A5EDF5FE009A074B9A4208D147
:1039300010B502F0EFF802F00FF806BC96460C4600
:10394000744702F01FF90000A5EDF5FE0CB4029AD1
:10395000084B9A420CD14FF0004319430CBC10B5F0
:1039600000F022F801F0F8FF06BC96460C467447BA
:1039700002F008F9A5EDF5FE009A044B9A4202D137
:1039800003490868744702F0FDF80000A5EDF5FE54
:10399000905C0000009A034B9A4200D1744702F0F9
:1039A000F1F80000A5EDF5FE2DE9F84304460D46BB
:1039B00016461F46EFF30583C3F308030BB1FFF769
:1039C000DFFBDFF834903B46204632462946D9F8E3
:1039D0000080FFF77EFCD9F800300446984506D0F9
:1039E0009B6901461869BDE8F843FFF70EBCFFF775
:1039F00000FC2046BDE8F883481A0020014B1B68F4
:103A0000184700BF40110020024B1860024B0020F5
:103A1000196070474411002040110020014B1860CC
:103A2000002070473C11002010B50A46044619B129
:103A3000024B00211B68984710BD00BF48110020B1
:103A4000074B0A465978022906D11978072903D16C
:103A50000146181D02F0DCB86FF08800704700BF07
:103A6000641A002010B5124C2378590744BF23F084
:103A70000403237023789A0705D500F063F82378B0
:103A800023F002032370637813B10A4802F0D1F8DF
:103A90000023042107486370FFF7C6FF2378DB0784
:103AA00005D502F0B2F8237823F00103237010BD8E
:103AB000641A0020681A002038B51C4D6A782B78EB
:103AC000022A01D1072B12D0D80713D52B789907DA
:103AD00007D400F02FF82B78044643F002032B7034
:103AE00088B96A782B788AB12B785A0719D50024BF
:103AF000204638BD02F087F82B78044643F00103D6
:103B00002B700028E2D0FFF7ADFFF1E7DB07EBD524
:103B1000074802F07BF8022304466B700028F2D1BC
:103B2000E2E743F004032B70E1E700BF641A0020D2
:103B3000681A00200122024B002083F8802570477C
:103B40006C1A00202DE9F0410A4C002526464FF062
:103B5000010803272046C4F820802777013502F0AA
:103B600035F8202D04F12C04F4D1002386F880359B
:103B7000BDE8F0816C1A002010B50C4C236813B11D
:103B80000B4B1B682BB900F089FC30B90122084BA4
:103B90001A6001232360002010BD0138062801D9D6
:103BA000044810BD044B53F8200010BD082000202D
:103BB00004200020FE8FFFFF945C0000144B2DE9D1
:103BC000F043002814BF04461C46124F236883B0FC
:103BD000BB4219D016460D4620464FF4147104F12D
:103BE000040900F047F804F58E78484600F0CEF856
:103BF000404600F019FA2B464A46404606490096D0
:103C000000F034FB08B92760002003B0BDE8F08362
:103C10000C200020A5BCC95A113E000070B50D4C07
:103C20001D46002814BF064626460B4B306882B05E
:103C300098420DD106F58E70002633460096144644
:103C400000F03EFB002818BF34462C6002B070BD67
:103C50000248FBE70C200020A5BCC95AE88FFFFFF3
:103C600038B131B1002201440346013081421A705B
:103C7000FAD1704738B131B1002201440346013016
:103C800088421A70FAD170472DE9F043202B1D4667
:103C90000646884691468BB026D8DBB202AF8DF837
:103CA0000480B04658F8041B8DF8053021B9404611
:103CB00001F038F9044640B901230222404633603E
:103CC00001A901F043F9044638B138462021FFF735
:103CD000D1FF20460BB0BDE8F0832A464946404656
:103CE00001F034F90446F0E702AF1946104600230C
:103CF0003A4601F0B1FA04460028E6D12023B9463D
:103D00001D46CCE72DE9F041D0F8F830A6B0002BE5
:103D1000D8BF02AE31DD05460027D0F80C4102AE17
:103D2000A4F101089022D5F8FC403146D0F80001FA
:103D300001AB0197B8FA88F8A0474FEA5818044633
:103D400020B9019B53B9B8F1000F16D0304690212D
:103D5000FFF790FF204626B0BDE8F08101463246CD
:103D60002846FFF791FF58B9D5F80431019A13445A
:103D7000C5F80431B8F1000FE8D16FF03C04E5E775
:103D80000446204626B0BDE8F08100BF70B500258E
:103D90000446142204F588762946C0F8F850FC3011
:103DA00001F089FE08222946304601F084FE144BBA
:103DB00030461B689847204640F8045B01F098F8AD
:103DC000104B30461B689847C8B9D4F8F830AB425E
:103DD0000FDC03EB830204EB82022021C2F8000116
:103DE0000120C2E9421008490133C2F8FC10C4F8AE
:103DF000F830064B3046BDE870401B68184770BD70
:103E00006811002064110020F54D000060110020B1
:103E10002DE9F047202A88B07AD83F4B00F5887901
:103E200004461B6848461746884698470546F8B931
:103E300040F20116D4F8F830002B65D02046FFF789
:103E400061FF054638B9D4F8F830002B14DC013E88
:103E5000F2D16FF03B056E4620213046FFF70AFF96
:103E60002E4B48461B689847002818BF6FF01D0569
:103E7000284608B0BDE8F087D4E94132934203D325
:103E8000D4F80C21012A02D0013ED7D1E1E71F2B43
:103E9000FAD96E4601462022304604F1040A01F0A8
:103EA0000AFE3146504601F07BF805460028D3D182
:103EB000504601F031F8504601F01AF829465046B4
:103EC00001F030F805460028C6D150462022314680
:103ED00001F03CF805460028BED1034632462021B9
:103EE000304601F0B9F905460028B5D1D4F8F830CC
:103EF0003A46002BC8BF002340463146C8BFC4F82D
:103F0000043101F0B3FDA7E76FF03F056E46A3E76C
:103F10006FF03B05ACE700BF64110020601100208A
:103F200070B590B000287AD03E4C0D464022362124
:103F30000646204601F0BFFD40225C21A01801F09A
:103F4000BAFD2B1DA34203D904F144039D4252D371
:103F50002B682268534023602B68226C53402364F3
:103F60006B686268534063606B68626C5340636463
:103F7000AB68A2685340A360AB68A26C5340A364D3
:103F8000EB68E2685340E360EB68E26C5340E36443
:103F90002B69226953402361226D2B6953402365AD
:103FA00062696B69534063616B69626D534063651D
:103FB000AB69A2695340A361AB69A26D5340A3658D
:103FC000EB69E2695340E361EB69E26D5340E365FD
:103FD0000021304600F0A6FF044628B940223046B2
:103FE000104900F0B3FF044640216846FFF742FE47
:103FF000204610B070BD631E04F13F01013D1F3427
:1040000015F8010F13F8012F42401A7011F8012F13
:104010002878A34282EA00020A70F1D1D8E76FF053
:104020007304E5E75C22002010B54FF49A7200217A
:10403000044601F040FD42F21072044BC4F8202106
:1040400004F596701B68BDE8104018476811002001
:104050002DE9F04F04468846914695B0002900F0BE
:10406000A780002A0CBF0126022600238DF80C3001
:10407000002C00F09F80DFF844A104AF0AF1400B50
:104080000021204600F04EFF034648B1384620216B
:104090000193FFF7EFFD019B184615B0BDE8F08FC7
:1040A00040225146204600F051FF03460028EDD142
:1040B00004F1F40520222946204600F047FF03467C
:1040C0000028E3D10122204603A900F03FFF034668
:1040D0000028DBD1022E62D020460CA900F060FF40
:1040E00003460028D2D10146204600F01BFF0346BC
:1040F0000028CBD140225946204600F027FF034636
:104100000028C3D1202220460CA900F01FFF03463F
:104110000028BBD13946204600F042FF0346002864
:10412000B4D139462046FFF7FBFE03460028ADD147
:1041300020222946204600F009FF03460028A5D189
:1041400020460CA900F02CFF034600289ED1014612
:10415000204600F0E7FE0346002897D1402259464A
:10416000204600F0F3FE034600288FD1202220468F
:104170000CA900F0EBFE0346002887D12946204613
:1041800000F00EFF0346002880D19DF80C2001327C
:10419000D2B2B2428DF80C20FFF472AF76E74A46F5
:1041A0004146204600F0D2FE0346002894D06DE739
:1041B00001265AE76FF0730304AF67E75C22002023
:1041C0002DE9F0410446884615461F46D0F81801EF
:1041D000E0B013B100EB40004008B5F5807F3ED859
:1041E0002844B0F5C07F3AD84FF4C0720021684629
:1041F00001F061FC6946D4F82431D4F81821D4F8D0
:104200002801984770BBD4F8186157B1D4E94930F8
:1042100072080DEB0601984720BBD4F8183106EB65
:104220005306B8F1000F00D08DB9324669462046DA
:10423000FFF70EFF054610B90123C4F814313146CB
:104240006846FFF717FD284660B0BDE8F0810DEB2A
:10425000060041462A462E4401F008FCE5E76FF0CF
:104260000405F0E76FF00805EDE700BF2DE9F04722
:10427000044604F1F4050F4691461E46DDF8208001
:1042800000F036FE29462046FFF74AFE08B1BDE899
:10429000F08728462022012101F00DFCD4F81831C6
:1042A000C4F82471C4F8289113B92023C4F8183134
:1042B000424631462046BDE8F0470123FFF780BF64
:1042C000B2F5806F00F295802DE9F04F89B09A46E3
:1042D000129BB3F5807F00F29080D0F8243116460F
:1042E00004460F464BB3D0F81C31012B05D0D0F853
:1042F0001421D0F820319A421FDD51460023204678
:10430000129AFFF75DFF014698B900231293002E21
:104310005ED0DFF8EC9009F1400B0021204600F060
:1043200001FE202E3546014628BF202504F1F40861
:1043300090B1084609B0BDE8F08FBAF1000FE6D0A1
:10434000129B002BE1D051461A462046FFF780FE13
:1043500001460028DBD0ECE749464022204600F029
:10436000F5FD01460028E4D141462022204600F018
:10437000EDFD01460028DCD16946204600F010FE24
:1043800001460028D5D1204600F0CCFD014600288A
:10439000CFD159464022204600F0D8FD01460028E2
:1043A000C7D169462022204600F0D0FD01460028F2
:1043B000BFD14146204600F0F3FD01460028B8D1A8
:1043C00038462A46414601F051FB761B2F44A4D1C2
:1043D00051462046129AFFF73BFE01460028A8D11D
:1043E0000846D4F814310133C4F8143109B0BDE8DB
:1043F000F08F6FF00201084670476FF0040198E7F4
:104400005C220020002130B58DB0282202A8019145
:1044100001F051FB02A800F047FF044610B120460E
:104420000DB030BD174D4FF0FF31286800F042F954
:10443000044620B1144800F0D3F9012C18D0002014
:1044400000F068F9D0B9114A02A901A800F0C4FC33
:104450000446012000F05EF960B9286800F032F9E6
:104460000028DCD00A4800F0BBF920460DB030BD72
:104470000524F2E7074800F0B3F9EEE7064800F03C
:10448000AFF9E0E74C110020B05C0000DC22002016
:10449000085D0000E85C0000C85C000030B583B037
:1044A00000F05CF828B100F0ABF80324204603B01C
:1044B00030BD00F077F8D8B900F02CF9E0B9224C03
:1044C000D4F828391B0EF02B0AD1D4F8242A1F4B1C
:1044D0009A4231D000F044F8072400F091F8E5E763
:1044E000062400F03DF800F08BF8204603B030BD04
:1044F0000424204603B030BD00F032F800F080F80C
:10450000FFF780FF044698B9114D2B68002BCDD1E1
:1045100002460146FFF752FB50B968220D4901AB34
:10452000FFF77CFB20B920460B4B2B6003B030BD5E
:104530000524204603B030BD012000F0EBF8002830
:10454000DAD1C4F80C0ADBE7001084500000E02048
:10455000FC240020002500205AEA5A5A0020704707
:1045600000207047430504D54FF0FF32034BC3F8DA
:104570000821024BC3F8080A704700BF001084509E
:10458000014BC3F8040A70470010845008B100F0D2
:104590006BB84FF47500704708B100F04FB84FF496
:1045A0007500704710B5114800F070F800B110BDEB
:1045B0000F4800F06BF80028F9D10E4C204600F0AF
:1045C00065F80028F3D10C4B0C481C6000F05EF835
:1045D00001460028EBD100F02DF8044608B1204632
:1045E00010BD00F079F82046FAE700BF5C1100200A
:1045F00058110020541100204C11002050110020AF
:1046000008B5084800F04CF8074800F049F807489A
:1046100000F046F8064800F043F8BDE8084000F016
:104620000BB800BF5C11002058110020541100206D
:104630005011002000207047704700BF024610B4A0
:10464000084CD4F8003A1342FBD021B1D4F804311D
:104650000B60C4F80831034B0020C3F8082A10BCD3
:10466000704700BF00108450044AD2F8003A184244
:10467000FBD0C2F8080A0020704700BF0010845029
:1046800001F0BEB90A46002101F015BA08B5034B86
:1046900002681B6810689847002008BD8811002038
:1046A00008B5034B02685B6810689847002008BD96
:1046B00088110020024B02689B681068184700BFF1
:1046C0008811002008B5034B0268DB681068984722
:1046D000002008BD8811002070B5094C094D2069E3
:1046E000AB68984718B1084B08485B6898470021A9
:1046F000074AEB6811602069BDE87040184700BFA9
:1047000074110020881100206C110020205D000031
:1047100068250020F8B51A4D1A4E0446B26828697B
:104720009047E8B9184F3B684CB1A3B1012B19D0A1
:10473000013B3B602869F36898470020F8BD43B906
:104740000121124AC2F800151149D1F81029002A96
:10475000FBD101333B60F368286998470020F8BD1E
:104760000C48F8BD0A4AD2F81039002BFBD1074A91
:104770006FF07E40C2F80035FFF702FF3B68D7E7D5
:10478000741100208811002068250020000084504A
:1047900000108450E98FFFFF014B1B68184700BFD2
:1047A00088110020014B9B68184700BF881100202A
:1047B000014BDB68184700BF88110020BFF34F8F03
:1047C0000549064BCA6802F4E0621343CB60BFF3AD
:1047D0004F8F00BFFDE700BF00ED00E00400FA05C9
:1047E00030B44FF0FE320025074B084C08494968A9
:1047F000C3F80024C3F80424C3F80824C3F80C2425
:10480000C4F8005530BC08470010845000008450A4
:104810006C11002010B5044650B1636813F0685F56
:1048200005D0064A934202D000236260236010BD87
:10483000034B04485B689847EFE700BF2C5F5CA917
:104840006C110020405D0000C8B143680D4A9342DE
:1048500013D013F0685F0ED0012350E8002F1946E3
:1048600040E8001C9CF0000FF7D1012AF5D0BFF3FF
:104870005F8F0020704704487047044870476FF40A
:10488000E04070472C5F5CA9E98FFFFFEA8FFFFFD4
:10489000034680B1426809498A420AD012F0685F33
:1048A00005D0BFF35F8F002210461A60704704489E
:1048B0007047044870476FF4E04070472C5F5CA974
:1048C000E98FFFFFEA8FFFFF10B5044620B10023F8
:1048D000034A2360626010BD0248FFF781FFF6E7DC
:1048E0003A00003A685D00002DE9F047002878D0D2
:1048F0000C46002975D01D46002B72D007461AB110
:10490000012200232A6003602B68002B64D0294613
:10491000204600F0B7FD804600285FD12146286878
:1049200000F096FD8046002858D12B68082B6CD0EB
:10493000042B6DD0A3F10209B9FA89F94FEA59198C
:104940000121354EC6F8C411C6F84011C6F8C4118D
:10495000636AC6F83031D6F830219342F6D14FF071
:10496000000A4FF0FF30C6F82CA1FFF7FBFD6FF0F7
:104970001B035046C6F80031FFF702FEC6F80C9143
:10498000D6F8040A40F48060FFF7FAFD0A23C6F85F
:104990003831089B012B29D02369204AA2FB03232D
:1049A0001B09626A404602FB03F303EB43031A4A06
:1049B000DB039B09C2F8D8310123C2F82C313B68D4
:1049C0002A6823F07F4343EA02633B602A6843EA94
:1049D00002233B60BDE8F087DFF844804046BDE835
:1049E000F087DFF840804046BDE8F0874FF47F0352
:1049F000D3F80C2C013206D0D3F80C3C074AA2FBAA
:104A000003231B09CDE71623CBE74FF0030997E7F4
:104A10004FF0020994E700BF00108450ABAAAAAA85
:104A2000310CF100350CF10058B34B1EB3F5047F87
:104A300027D230B54FF0000ECD00744671464B09B9
:104A400001F01F0C50F82330BCF11F0F23FA0CF3B8
:104A500006D003F0010319B901211C468E46EEE78A
:104A60009C4201F1010106D01C464FF0010EA94203
:104A7000E5D1002030BD0EF1010E9645F7D1024878
:104A800030BD0148704700BF360CF100C0B32DE9BE
:104A9000F0434C1EB4F5047F1DD2E3B1DAB100251A
:104AA0002E46A8462C46CF0003F1FF394FEA541C8E
:104AB00004F01F0E50F82C10BEF11F0F21FA0EFC4F
:104AC0000CD00CF0010C4CB90126E04634463546BA
:104AD000ECE7964216D90C48BDE8F083AB420BD008
:104AE000C44508BF0136A945F3D001350134BC42A5
:104AF000DCD10020BDE8F0830125E0462E46F5E735
:104B0000014870471D46F1E7370CF1002DE9F04FE1
:104B100091B08346DDE91B460D46002E6ED10F692C
:104B20001C6000231A990B60002A00F02F819D4B16
:104B30006A6AD3F83811D3F830319A4269D10A2918
:104B400067D19BF80330089304F10803079304230B
:104B50000593954B934CA3FB07239B0803EB43035F
:104B6000A7EB4303039306971A9B069E1E60002E35
:104B700000F0EA8000F096FC00230993BBF1000FDF
:104B800000F0D58098464FF0010ADDF81C90002D0A
:104B900000F0CD80089B002B3DD0284608A900F0EE
:104BA00071FC002839D0814B984220D0089B082BFB
:104BB00000F0E48000225B000893294608AB5846C9
:104BC0000092FFF791FE7A4B984200F0D38070B9C3
:104BD000DBF80020130A03F47F03134323F07F4321
:104BE000CBF80030059B013B0593BDD1002003901D
:104BF00000F058FC039811B0BDE8F08F4FF47F012E
:104C0000D1F80C0C01300CBF4FF40477D1F80C7CB8
:104C100086E76848EBE76648C5E72946089800F04C
:104C200017FC0028BFD1089B082B00F0A980042B9B
:104C300000F0A980A3F10203B3FA83F35B090493A4
:104C4000C4F8C4A1C4F840A1C4F8C4A16B6AC4F8F4
:104C50003031D4F830219342F6D100234FF0FF30A9
:104C6000C4F82C31FFF77EFC002318466FF01B03BD
:104C7000C4F80031FFF784FC049B4B4FC4F80C319F
:104C8000D4F8040A40F48060FFF77AFC0A23C4F8E1
:104C900038312B6909A8A7FB03236A6A1B0902FBA9
:104CA00003F303EB4303DB039B09C4F8D831C4F8D7
:104CB0002CA1DBF80030089923F07F420B0243EA75
:104CC00001631343CBF8003000F0B2FB099B03F003
:104CD0001A0303437FF46AAFA7FB0637D4F81431F5
:104CE000B8EB970F0A93D4F818310B93D4F81C3112
:104CF0000C93D4F820310D93D4F824310E93D4F8CA
:104D000028310F9301D1039B9BB9484618220AA969
:104D1000183EFFF7B5FC09F1180908F101089EB12A
:104D200000F0C0FB00230993002D7FF433AF22482D
:104D300039E748461A46F61A0AA9994408F10108C3
:104D4000FFF79EFC002EEBD1069F079E6A6939464D
:104D50003046FFF769FEAA6940B94FF480633946CF
:104D60003046FFF793FE00283FF440AF00231A9A25
:104D7000136018E72B6A002B3FF439AF0F4836E772
:104D8000032304935CE70223049359E70122294695
:104D90005846009608ABFFF7A7FD00283FF4D4AEB5
:104DA00025E700BF00108450ABAAAAAA020CF100AC
:104DB000310CF100300CF100350CF100320CF10037
:104DC00010B4DDE9013401940024DDF80CC0CDE914
:104DD00002C410BCFFF79ABE30B51546012487B057
:104DE00005AB00930022CDE9015404ABFFF78EFE22
:104DF00007B030BDF0B587B0002966D01E46002B45
:104E000063D01446002A60D0314F0D4638684FF009
:104E1000FF31FFF74FFC00284DD10020FFF77AFC4F
:104E2000002844D12B4800F03FFAD8B101204FF0C0
:104E3000FF35FFF76FFC002835D14FF40871264885
:104E4000FEF70EFF04212548FEF70AFF214828211E
:104E5000FEF706FF3868FFF735FC00282FD12846FB
:104E600007B0F0BD1C4A0346029205AA019204AAAB
:104E700003900092174902461848FFF7A1FF034626
:104E80000028D3D128461D46059B22469C4228BFB8
:104E90001A46049932600831FFF7F2FB0120FFF750
:104EA00039FC0028C9D00E48FFF79AFCC5E70D4829
:104EB000FFF796FCB6E70C48FFF792FCADE70B480E
:104EC000FFF78EFC284607B0F0BD4FF0FF35C6E770
:104ED0004C11002080250020A82500207C250020E2
:104EE000E85C0000C85C0000B05C00008C5D000065
:104EF00010B5044628B12046BDE81040F421FFF764
:104F0000C1BB0448FFF76CFC2046BDE81040F4210B
:104F1000FFF7B8BBA45D000010B1F421FEF7A0BEFE
:104F2000704700BF08B521B1012908D06FF03600E5
:104F300008BD012100F058F80028F7D108BD022172
:104F400000F052F80028F9D0F0E700BF30B5054670
:104F50008818B0F5801F0B461446A1B001D8802AEE
:104F60000CD9B3F5801F17D922461946284600F000
:104F70007DF8044684B9204621B030BD6846FFF76D
:104F80007FFB22466946284600F070F880210446DF
:104F90006846FFF777FBEDE76FF03604EBE700BFFD
:104FA00070B5E8B10E46D9B1044600F031F80546B7
:104FB000B0B92368012B0BD0022B01D0284670BD5D
:104FC0001C22304604F10801FFF75AFB284670BD49
:104FD0002022304604F10801FFF752FB284670BD3D
:104FE0006FF03605EAE700BF78B138B50D46F0211D
:104FF0000446FFF747FB402320462560E36500F0A9
:1050000091FA003818BF012038BD0120704700BF59
:10501000F0B5056EA5B0044604AEE5B9002301273E
:10502000019330466760294602AA009300F046FAD1
:1050300010B1012025B0F0BD2A46204602A900F09B
:1050400099FA0028F5D1204600F0AAFB0028F0D1FB
:10505000206625B0F0BD802D2A46304628BF80222C
:1050600004F16401FFF70CFB256ED7E7002800F080
:10507000AE802DE9F04F1446A5B0002A3DD00F4672
:10508000002949D0B2F5803F0546006E20D34FF687
:10509000FF7805F1640AEB6D1A1AB2FBF3F103FB1A
:1050A0001122002A65D18342B9464FF6FF7672D0AD
:1050B000B6FBF3FB03FB0BFBBBF1000F30D1002E63
:1050C00045D1A4F57F44FF3CB4F5803F4744E2D28C
:1050D000EA6D161AB6FBF2F302FB1366A64228BF6E
:1050E0002646002E75D1824200F08D80B4FBF2F688
:1050F00002FB06F62EB9002C79D1002025B0BDE8C0
:10510000F08F002331463846CDE9003302AA00F083
:10511000D5F9002800F09580012025B0BDE8F08F7A
:10512000002359464846CDE9003302AA00F0C6F9EB
:105130000028F1D15A46284602A900F01BFA00289F
:10514000EAD1A6EB0B06286ED944002EB9D019304F
:105150004946324605EB8000FFF792FAA4F57F44FA
:10516000286EFF3C3044B4F5803F4744286692D215
:10517000AEE7424528BF4246164639465044FFF73F
:105180007FFA286EEB6D3044834207EB06092866F0
:10519000A8EB06068CD1802B28BF802351461A46E7
:1051A00004A8FFF76DFA0023E96D02AACDE90033E8
:1051B00004A800F083F90028AED12846EA6D02A9C0
:1051C00000F0D8F90028A7D1EB6D286670E7012020
:1051D000704705F16403394632461844FFF750FA28
:1051E000286EEA6D3044A41B374428667BE72B6E9B
:1051F0002246193305EB83003946FFF741FA2B6E3F
:1052000023442B6679E7802A28BF802205F16401B8
:1052100004A8FFF735FA0023E96D04A8CDE90033AF
:1052200002AA00F04BF900287FF476AF2846EA6D19
:1052300002A900F09FF900287FF46EAFEA6D28669E
:1052400054E73246284602A900F094F900287FF47A
:1052500063AF3744A41B4EE7F8B51C46054611481A
:1052600016460F46FFF744FE21460E48FFF75AFE4A
:10527000044620B10B48FFF74FFE2046F8BD3A46E2
:1052800029460848FFF762FE04460028F2D131465D
:105290000448FFF785FE04460248FFF73DFE20461E
:1052A000F8BD00BFC82700201C2370B582B001A93B
:1052B0000546019300F032F8044638B9019B1C2BD7
:1052C00007D0144C1C212846FFF7DCF9204602B019
:1052D00070BDD5E90112131E18BF0123003918BF94
:1052E0000121012628689B00EA6843EA410300285F
:1052F00018BF43F00103EE612AB9C5E90834002B59
:10530000E4D1054CDEE7204643F00803C5E9083444
:1053100002B070BD370CF0000E0CF0000346002800
:1053200066D0002964D00A681C2A61D14FF47F023C
:105330003B49D2F8100C88425CD0D2F8101C0131E5
:1053400058D0D2F8101C4FF47F021960D2F8140C18
:105350003449884260D0D2F8141C01315CD0D2F8B4
:10536000141C4FF47F025960D2F8181C11F5947F79
:105370004FD0D2F8181C01314BD0D2F8181C4FF482
:105380007F029960D2F81C0C274988423ED0D2F89F
:105390001C1C01313AD0D2F81C1C4FF47F02D9609A
:1053A000D2F8001C70312FD0D2F8001C01312BD064
:1053B000D2F8001C4FF47F021961D2F8041CAF31FF
:1053C00020D0D2F8041C01311CD0D2F8041C4FF4B8
:1053D0007F025961D2F8080C144988420DD0D2F8E6
:1053E000081C013109D0D2F8082C00209A617047BE
:1053F0000120704740F6FC01A5E740F2373200205B
:105400009A6170475121E2E79021D3E742F60411F7
:10541000C3E740F6D861B2E742F2D001A1E700BF8E
:10542000FCF8FFFFD020FFFF0429FFFF37F3FFFF49
:10543000014608B54FF48060FFF7AEF80022034B39
:10544000C3F8C821C3F82C2108BD00BF0010845048
:105450000138072805D8DFE800F0100E040A04041C
:10546000040607487047CB6800204B6270478B6882
:1054700000204B6270474B68F6E70B68F4E700BF0B
:10548000310CF1000B6802E0082B0B6006D8026AB1
:1054900013424FEA4303F7D000207047004870479B
:1054A000310CF1000022044B4FF48060C3F82C2132
:1054B000C3F8C421FFF756B800108450F0B500249B
:1054C00083B0B0F1005F8DF8074025D38C4684444B
:1054D000BCF1804F04461FD817461D4601220DF12E
:1054E000070300F097F90646B0B99DF80730099A0E
:1054F0003C603B7192B14DB10246089928460DF1CE
:10550000070300F087F938B99DF807303046099A4B
:105510001560137103B0F0BD4FF47506304603B04B
:10552000F0BD00BFD8B108B50368012B04D0022B31
:105530000FD043B10B4808BD20220B490830FFF7BC
:105540009FF8002008BD142208490830FFF798F89A
:10555000F7E7202206490830FFF792F8F1E74FF409
:10556000730070470100F300B45D0000F45D0000BB
:10557000D45D00002DE9F843002900F0F9800446CD
:10558000002800F0F98003680F469046002B00F0D9
:10559000C380013B012B00F2D7804FF0FF317848E8
:1055A0004FF00209FFF786F8002840F0BF80002086
:1055B000FFF7B0F80646002840F0C280714AD2F8E2
:1055C0001C39002BFBD16F4DD5F8203C002BFBD1B3
:1055D0004FF0FF30FEF7C6FFD5F8040A20F0400078
:1055E000FEF7CEFF01230722C5F81838C5F80029B9
:1055F000C5F8C437A36CC5F8CC37E36CC5F8D03711
:10560000C5F8C09723685BB1013B012B18D8636ACA
:10561000C5F85C36236AC5F85836E369C5F85436D0
:10562000A269584BC3F850266269C3F84C26226918
:10563000C3F84826E268C3F84426A268C3F84026A7
:10564000504AD2F81039002BFBD1B8F1000F5FD0CF
:1056500063684020012B08BFC2F884363A68494B82
:10566000C3F8282CC3F82C8CFEF790FF0646454A59
:10567000D2F81039002BFBD1424AD2F8203C002B43
:10568000FBD123685BB1013B012B18D8D2F85C3603
:105690006362D2F858362362D2F85436E361394B4C
:1056A000D3F85026A261D3F84C266261D3F848267D
:1056B0002261D3F84426E260D3F84036A360002389
:1056C0000121304AD2F8CC07A064D2F8D007E064B8
:1056D000C2F8C417C2F88436C2F8C837D2F81039F5
:1056E000002BFBD1C2F81838002E3BD1254BD3F844
:1056F000040A40F04000FEF743FF0120FFF70AF8DC
:1057000060BB1F48FEF7DEFF10BB3046BDE8F883E4
:105710000423C2F8C837AAE74FF0FF3118484FF00A
:105720000109FEF7C7FF00283FF441AF1648FFF715
:1057300057F80020FEF7EEFF064600283FF43EAF84
:105740001248FFF74DF839E7114E3046BDE8F883AF
:105750001048FFF745F83046BDE8F8830E48FFF7DC
:105760003FF8CEE7102104F10800FEF78BFFBDE7FC
:105770000A4E3046BDE8F8834FF47306C5E700BF14
:105780005C11002000108450B05C0000C85C000078
:105790000100F300085D0000E85C00000300F30076
:1057A000A0B3034670B4D0E90240D3E9041226BA8C
:1057B00005BA0CBA10BAC3E90440D3E90612986AD4
:1057C00009BAC3E9026512BA996100BAD3E908417E
:1057D00025BA0CBAC3E90725D3E90B12C3E909407E
:1057E00009BAD86B12BAD962D3E90D4125BAC3E917
:1057F0000C250CBA00BAD3E9101209BA12BAC3E9DF
:105800000E40196400205A6470BC70474FF4730056
:10581000704700BF00201870704700BF431810B5D4
:1058200001D21F2A01D9002010BD013902F0140352
:105830000144102B80EA01043CD009DC8BB1042B1D
:10584000F1D11F2C40E840F315D941E840F10EE0BA
:10585000142BE8D11F2C40E8C0F30CD941E8C0F16B
:1058600005E01F2C40E800F305D941E800F11C4693
:105870000B468C42D7D122F01402013A0A2AD2D820
:1058800001A151F822F000BFD7580000D158000004
:10589000C358000027580000275800002758000070
:1058A00027580000DD580000D7580000CB580000F2
:1058B000C35800001F2C40E880F3DCD941E880F198
:1058C000D5E713F4001FAFD1ADE713F4801FFAE75B
:1058D0005B02A9D5A7E713F4002FF4E713F4802F98
:1058E000F1E700BF08B5074B044613B10021AFF341
:1058F0000080054B1868836A03B19847204600F082
:1059000029F800BF00000000085E000070B50D4DD2
:1059100000260D4C641BA410A64209D10B4D002695
:105920000B4C00F0A9F9641BA410A64205D170BD70
:1059300055F8043B01369847EEE755F8043B01362D
:105940009847F2E70809000008090000080900006C
:105950000C090000FEE700BF002383F300887047B6
:10596000FDF70EBCEFF30880EFF309812DE9F00F8E
:105970006B467246FBF7B0F908B0FFF7F1FFFEE7A0
:10598000FDF7FEBBEFF30880EFF309812DE9F00F7F
:105990006B467246FBF7A0F908B0FFF7F1FFFEE790
:1059A000FDF7EEBBEFF30880EFF309812DE9F00F6F
:1059B0006B467246FBF790F908B0FFF7F1FFFEE780
:1059C000FDF7DEBBEFF30880EFF309812DE9F00F5F
:1059D0006B467246FBF780F908B0FFF7F1FFFEE770
:1059E000FDF7CEBBEFF30880EFF309812DE9F00F4F
:1059F0006B467246FBF770F908B0FFF7F1FFFEE760
:105A0000814270B40546144602D370BC00F02EB833
:105A1000821821443CB141EA020313F003030FD181
:105A2000E018032812D86FF00300A30843430020B6
:105A300019441A442344984210D1284670BC704738
:105A400011F8013D013C02F8013DE3E7581850F818
:105A5000046C981840F8046C043BE1E70C1A14F845
:105A6000016C141A04F8016C0130E4E770B50446C7
:105A70003AB141EA040313F003030CD1D518032D06
:105A80000FD822F003031C441944002302F0030240
:105A900093420CD170BD11F8013B013A04F8013B6F
:105AA000E6E7CD1A2E68E51A2E60043BE6E75D5C5A
:105AB000E5540133ECE7F0B5044662B922F0030384
:105AC000234402F003021A44934214D1F0BD04F8B7
:105AD000011B013AF1E7A307F9D115460B0443EA8C
:105AE00001630B4343EA01231619032DE6D9771B03
