:1080000058FD002015B200005D5A010001B20000C9
:1080100001B2000001B2000001B2000001B2000094
:108020000000000000000000000000009DB3000000
:1080300001B200000000000035B3000001B20000F2
:1080400035B5000035B5000035B5000035B5000088
:1080500035B5000035B5000035B5000035B5000078
:1080600035B5000035B5000035B5000035B5000068
:1080700035B5000035B5000035B5000035B5000058
:1080800035B5000035B5000035B5000035B5000048
:1080900035B5000035B5000035B5000035B5000038
:1080A00035B5000035B5000035B5000035B5000028
:1080B00035B5000035B5000035B5000035B5000018
:1080C00035B5000035B5000035B5000035B5000008
:1080D00035B5000035B5000035B5000035B50000F8
:1080E00035B5000035B5000035B5000035B50000E8
:1080F00035B5000035B5000035B5000035B50000D8
:1081000035B5000035B5000035B5000035B50000C7
:1081100035B5000035B5000035B5000035B50000B7
:1081200035B5000035B5000035B5000035B50000A7
:1081300035B5000035B5000035B5000035B5000097
:0481400035B5000051
:1081440053B94AB9002908BF00281CBF4FF0FF31BA
:108154004FF0FF3000F00CB8ADF1080C6DE904CE1F
:1081640000F022F8DDF804E0DDE9022304B07047F2
:10817400704700BF10F8012B11F8013B012A28BFFA
:108184009A42F7D0D01A7047034611F8012B03F82E
:10819400012B002AF9D17047034613F8012B002A5A
:1081A400FBD1181A013870472DE9F04786468C46F2
:1081B4000846089E154674461946002B40F0C180B7
:1081C4008542B2FA82F245D94AB1C2F1200300FADB
:1081D40002FC954094402EFA03F343EA0C0C4FEA58
:1081E400154EA8B2230CBCFBFEF80EFB18CC08FB02
:1081F40000F943EA0C43994528D9EB1808F1FF37F5
:1082040004D2994502D9A8F102072B44A3EB090330
:10821400A4B2B3FBFEFC0EFB1C330CFB00F044EADF
:108224000344A04214D92C190CF1FF3304D2A04208
:1082340002D9ACF102032C44241A43EA07401EB1CC
:10824400D440002334607360BDE8F0874746DDE71F
:108254006346F1E792BB431B01214FEA154EAFB2CF
:10826400200CB3FBFEFC0EFB1C330CFB07F840EAAE
:108274000343984561D9EB180CF1FF3004D29845BB
:1082840002D9ACF102002B44A3EB0803A4B2B3FB64
:10829400FEFC0EFB1C330CFB07F744EA0344A74225
:1082A4004DD92C190CF1FF3304D2A74202D9ACF1F9
:1082B40002032C44E41B43EA0040C0E7C2F120035C
:1082C4009540944020FA03F12EFA03F34FEA154E39
:1082D4009040AFB20343B1FBFEFC0EFB1C10190C23
:1082E4000CFB07F841EA0041884522D969180CF1D2
:1082F400FF3004D2884502D9ACF102002944A1EB35
:1083040008019BB2B1FBFEFC0EFB1C110CFB07F732
:1083140043EA01439F420ED9EB180CF1FF3104D21A
:108324009F4202D9ACF102012B44DB1B41EA00411C
:1083340093E76046E3E76146F7E76046A4E76346F0
:10834400B8E7834206D916B9002108467CE7C6E996
:1083540000E0F9E7B3FA83F78FB9834201D372459A
:1083640008D8BEEB020460EB030301209C461EB94F
:10837400002169E73846FAE7C6E9004CF8E7C7F197
:10838400200CBB400EFA07F522FA0CF42EFA0CF17D
:10839400BA401C4320FA0CF3B8404FEA1449014395
:1083A4001FFA84FEB3FBF9F809FB18300B0C08FB29
:1083B4000EFA43EA00439A4540D9E31808F1FF3026
:1083C40004D29A4502D9A8F102002344A3EB0A037C
:1083D40089B2B3FBF9F809FB183308FB0EFE41EA36
:1083E40003418E452CD9611808F1FF3304D28E4520
:1083F40002D9A8F10203214443EA0040A1EB0E0193
:10840400A0FB02984145CE46434602D306D14D45D2
:1084140004D20138B9EB020E68EB0403002EA7D096
:10842400B5EB0E0261EB030101FA0CFC22FA07F32F
:10843400F9404CEA0303C6E9003199E74046C5E731
:108444004346D9E7084B1A691268520148BF81F0C4
:10845400010129B19B68DB684FF08061024818472D
:108464009B681B69F8E700BF7C920100F7B5032104
:108474003D4A3E480DF007FA01241A233C488DF882
:1084840004300090ADF8064010F0D7F8002855D01D
:1084940000989DF80410BDF8063001250669DA0736
:1084A400346854BF43F4D01383F4B01323F480121C
:1084B4008D40DB0787684CBF2C43AC4334603B687A
:1084C4009847032401216846FFF7BCFF002141F6C9
:1084D4009A1010F012FB00216846FFF7B3FF41F633
:1084E4009A10002110F009FB013CEBD1214800F067
:1084F4006BF848BB1F4800F0AFF81F4800F0BAFC07
:10850400031E04DA01211D4A18480DF0C5F900F0D4
:108514006FFA031E1EDB1A4C144D00F0CFFC00F062
:1085240015FB031E04DA0121224628460DF0B4F996
:1085340000214FF4004010F0E0FAEEE7114A214622
:108544000A480DF0A0F9D1E701210F4A07480DF0C0
:108554009AF9D2E701210D4A04480DF09DF94FF034
:10856400FF3003B0F0BD00BF8E9B01007896010080
:108574007C9201003C93010020BF0200EA9B0100B1
:10858400179C0100A79B0100BC9B0100039C0100F8
:1085940013B5044610F051F860B1002120460DF1E6
:1085A40006020BF0E6FF002808DA0121044A054818
:1085B4000DF069F96FF0120002B010BD0020FBE766
:1085C400359C010008970100F0B5054689B010F00C
:1085D40034F840B901211C4A1C480DF054F96FF0DD
:1085E400120009B0F0BD40F60423ADF8043001AB2D
:1085F40002930DF1030302220024012605930723AD
:1086040003928DF8104006968DF81C309DF81C30AE
:10861400A96813438DF81C308F686B23284602A980
:10862400B847A04206DA6B233146094A07480DF0E1
:1086340033F9D4E79DF8033004480321054A0DF0CB
:108644002BF92046CDE700BF529C0100A096010003
:10865400679C0100839C010010B504460321184A5D
:1086640018480DF010F9182240F2044120460BF08E
:10867400E5FF002822DB01224FF4816120460BF044
:10868400DDFF00281ADB03210F4A0E480DF0FBF82A
:108694000C2240F20C4120460BF0D0FF00280DDBE9
:1086A40001224FF4826120460BF0C8FF002805DB4D
:1086B40004480321054A0DF0E6F8002010BD00BF70
:1086C400A89C0100A0960100C19C0100DA9C010055
:1086D40010B504460321104A10480DF0D4F80022C6
:1086E4004FF4826120460BF0A9FF002804DA01212F
:1086F4000B4A0A480DF0C7F8204600224FF4816166
:108704000BF09CFF041E04DA0121064A03480DF015
:10871400BAF8204610BD00BFF19C0100A0960100EC
:108724001A9D0100329D010008B50321044A054841
:108734000DF0A9F8BDE80840034809F0D1BF00BF17
:10874400529D01007896010098CB002070B504F08A
:10875400BBFD044638B103461D4A01211D480DF0F6
:108764009BF8204670BD03211B4A1A480DF08BF874
:108774001A4805F09FFE044630B3194A0346ECE755
:10878400013D09D10121174A12480DF07CF86FF020
:1087940073040EF01DF9E4E700F090FB4FF4004081
:1087A400002110F0AAF900220023304609F0D2FF7C
:1087B40004460028E4D10C4A032106480DF063F86E
:1087C40001220A4B1A70CCE740F22D15084EEAE755
:1087D400669D010078960100809D01007B460100A2
:1087E400A59D0100C79D0100DF9D010010E300204D
:1087F40098CB002010B50A4C237853B10321094AC1
:1088040009480DF040F80EF0E3F804F085FD00236C
:1088140023700321054A04480DF035F80CF06EFC72
:1088240010E30020EE9D010078960100039E0100F4
:1088340030B51848184D85B0A8620FF0FEFE48B94F
:108844000121164A16480DF01EF84FF0FF34204659
:1088540005B030BD4FF47821A86A296001AA0DF053
:1088640067FB044628B101210E4A0D480DF00BF8B0
:10887400EDE7029B2846EB6003232B8201F07AF993
:1088840004460028E3D001210346074A04480DF0BA
:1088940003F8DCE7FC92010040D80020149E01009C
:1088A400B09601002B9E0100439E0100024610B5C4
:1088B40004230446012105480CF03EFF002803DC94
:1088C400831C02D100232360002010BD40D8002067
:1088D400002313B5044601A80193FFF7E7FF019BAA
:1088E400012123430193042303480DEB030201F008
:1088F400F7FA02B010BD00BF40D8002010B5012126
:108904000C480CF015FF044638B903210A4A0B48F9
:108914000CF0B9FF0024204610BD831C02D10221B3
:10892400074AF4E701210346064A04480CF0B4FF61
:10893400F1E700BF40D80020589E0100B096010026
:10894400769E01009D9E0100F8B500AF10F061F91C
:108954004FF47A73A0FB030403FB0141204AC00BCC
:1089640040EA4140D2E90032C90BC01A61EB02016E
:10897400B0F5FA6F71F1000325DA6E46D0F5FA65A9
:1089840088B06A4661EB4104164BD461C2E90535EF
:10899400042342F8103F00234FF40351124801F01E
:1089A40075FE40F2E733E10341EA5541ED03E8186F
:1089B400B5464FF47A724FF0000341F10001FFF71E
:1089C400BFFB0BF06FFE0022084B40F6CD400021A8
:1089D400C3F81C250BF066FEFFF70CFFBD46F8BD7F
:1089E40058CC0020C59E0100409601000050004074
:1089F400F7B50025474C0095D4F81C35DBB2A52B00
:108A040017D10221444A45480BF04AFEC4F81C55CC
:108A1400FFF70EFFFFF772FF0321414A3F480BF0B7
:108A24003FFE4FF4004000210BF03CFE012000F01B
:108A34001FFFA523C4F81C3510F0EBF84FF47A722D
:108A4400A0FB020302FB0131364CC00B40EA41405B
:108A5400C90BC4E90001FFF7EBFE041E07DA01218C
:108A6400314A2E480BF01CFE204603B0F0BD684688
:108A7400FFF71CFF009B2D4C13F0040F09D00623B5
:108A84002370237803212A4A24480CF005FF00248C
:108A9400EAE79A073CD413F0010F14BF0323012320
:108AA400237024480FF0C9FD38B9234A01211B481B
:108AB4000BF0F6FD6FF01204D6E7204D28460FF0B8
:108AC400BCFD08B91E4AF1E72E69AF683368072177
:108AD40043F0800333603B681A4A28469847154898
:108AE400FFF756FD2378032BCBD128467B6801A9D9
:108AF400984720B9336801985840C0F3C010012842
:108B0400BFD10321104A05480BF0CAFD0423B7E77F
:108B14000523C5E700500040FA9E0100409601007D
:108B2400269F010058CC0020439F010011E3002040
:108B34008C9F01001C930100529C01007C92010057
:108B4400579F0100110001006D9F01002DE9F04FB6
:108B540093B010F05EF84FF47A72A0FB020302FBAC
:108B64000131C30BA74843EA4143D0E900209B1AD3
:108B740040F2D1724FEAD13161EB0001934271F1BD
:108B8400000108DBA04AD2F81C35DBB2A52B04BFD8
:108B94000023C2F81C359D4D2B78013B052B0ED8C4
:108BA400DFE813F00600110066008700910024013D
:108BB4000321974A97480BF073FD02232B70002082
:108BC40013B0BDE8F08F00240321934A91480BF0C1
:108BD40067FD9248ADF834400BF014FD8F4FDFF879
:108BE40040828C4E38460DA90BF004FD00280ADAA9
:108BF400304601218B4A0BF053FD4FF40040002115
:108C04000BF050FDEEE7BDF8343003214246304608
:108C14000CF042FEBDF83430042B1BD80134782309
:108C240003213046804A009323460CF03FFE00F0B7
:108C340045F94FF4004000210BF034FD782CD1D1DC
:108C440003217A4A73480BF02BFD0120FFF740FE05
:108C54000323B3E703213046754A0BF021FD00F0EE
:108C64002DF94FF4004000210BF01CFD0024B9E75E
:108C74000321704A67480BF013FD68480BF0C2FCEF
:108C84006D4883689C6964B103694FF480021B6872
:108C9400072113F0800F14BF4FF000734FF080636F
:108CA400A0470321654A5B480BF0FAFCFFF74CFE32
:108CB40085E70321624A57480BF0F2FC0220FFF7D4
:108CC40007FE05237AE703215E4A52480BF0E8FCCD
:108CD400FFF73CFD034648B101215B4A4D480CF0C7
:108CE400DBFD0420FFF7F4FD062367E701241022CF
:108CF400014608A810F0A4F80DA908A88DF8304082
:108D04000BF0C3FC514B2046514903AA029303279D
:108D14000CF00AFF4FF03C084FF00009DFF834A1D3
:108D24001122022101200CF011FF041E1CDA10F0A4
:108D340005FA484B1B580121474A36480CF0ACFD54
:108D44000221464A33480BF0ABFC00F0B7F84FF46D
:108D5400F01000210BF0A6FC013FE1D10121404AB3
:108D64002C480BF09DFCBCE710264FF0000B14229E
:108D740001210DEB06030096CDE90489CDF818B066
:108D84000CF0DEFE152201210DEB060320460096B1
:108D94000CF0D6FE082220460DEB02010CF0C6FEB4
:108DA40058450CDA10F0CAF92A4B1B582D4A0121F8
:108DB40018480CF071FD20460CF0B4FEC0E75B4689
:108DC400112220460DA90CF0B3FE002805DA10F09C
:108DD400B5F95AF80030244AE9E70321234A0D483B
:108DE4000BF05EFC20460CF09DFE7AE70321204A3E
:108DF40008480BF055FC09480BF000FC0748FFF746
:108E040067FC53E758CC00200050004011E30020D9
:108E1400A89F010040960100BC9F01001C93010023
:108E2400F79F0100E19F01000DA001004FA0010088
:108E340027A0010070A001007C92010082A0010023
:108E440099A00100AAA00100BEA00100010013889E
:108E5400D4A001000C000000E1A001001EA101004B
:108E64002DA10100F1A0010002A1010010A1010047
:108E740042A101007FB505460E4C20460FF0DDFBF4
:108E8400A8B10023CDE900350225A66802938DF828
:108E94000C50B368694620469847074B0028186071
:108EA40003DB294620463368984704B070BD4FF071
:108EB400FF30FAE7DC92010070D80020024B1968F9
:108EC40002488368DB68184770D80020DC920100F0
:108ED4002DE9F04F91B0009302F004030293C2F322
:108EE400C2030133840705460E46DDF86880039209
:108EF400059340F0BB81041D30B1072909D86FF0F8
:108F04001B0011B0BDE8F08F01F007063444C6F130
:108F14000806009B4FF000094FF0040A591E4FF059
:108F2400FF334F460193CB465346CDF810900DB115
:108F3400009A22600598002800F3E8809848009A77
:108F4400824203D397488242C0F0E080039AA4EBA4
:108F5400050E92074FEA9E0000F103810F2F00F2E5
:108F6400B180002D00F0058107F140020DEB020CE9
:108F7400019A0CF8200C0CF8102C04980130049081
:108F8400E7E07A285DD84B280ED8472859D82928F5
:108F94002DD8252852D054D820287AD02338D0F17F
:108FA400000B4BEB000B74E04C382E2849D8DFE85B
:108FB40000F07048484848484848484848484B48A2
:108FC4004848484848484859484B4B595959704BA8
:108FD4006D487048184B184848827F4B48484B48A6
:108FE4007F0000204FF0000B4FF0040A38E001220C
:108FF4002A38C0B202FA00F010EA0E0F49D110F07C
:10900400625C2FD110EA020B43D06046013C544409
:10901400B4FBFAF40AFB04F4002D61D0A3EB050CB5
:10902400A444B4453FF66BAF002868D1042B47D164
:1090340058F8043B2360042304342AE0019A013ADB
:1090440001924FF0000B24E011F8010C6C2834D18C
:10905400002011F8023C83466C2BC5D14FF0080A5E
:109064005346D3E708F1070828F00708073424F02B
:109074000704F8E802AB35B106982044B0423FF645
:109084003EAFC4E900AB4FF0000B08344FF0080AC0
:10909400534611F8010F002878D0BBF1000F7FF47C
:1090A40070AF2528F5D14FF0010B019B01330193DB
:1090B4004FF0040AECE7584694E700208346A5E7FE
:1090C400082B02D06FF015001BE708F1070828F001
:1090D4000708F8E80223C4E9002308230834D8E782
:1090E40068B9042B02D108F10408A4E7082BE9D1DC
:1090F40008F1070828F0070808F10808EDE7059AC1
:10910400013A059258F8042B009210E7039A90074D
:1091140020D54FF0010CA4EB050E4FEA9E00BEF5DE
:10912400007FCFD20F2FCDD8F5B107F140020DEB60
:10913400020E019AC0B20EF8200C0EF8102CBCF1ED
:10914400000F3FF41AAF60F07F000EF8200C09F115
:1091540001090137C5F108024FF6DA7E043406929C
:1091640097E74FF0000CDAE7BCF1000F01D00136AD
:10917400EFE7029802360028EBD10098CDE90631DA
:10918400FFF70AF8DDE906310644E2E7631BB3F5AD
:10919400806F97D245B9A6F10804E018B1E600BF84
:1091A4005491010088B80100029A9B0828602B7032
:1091B4009DF81030C2B1EB7085F80290B9F1000F40
:1091C40005D0002208A8C5F1010C97420ED14FF03A
:1091D400000AC5F101030DF1200801930DF1300BD4
:1091E400574512D1601B8CE66B70E5E710F8013B24
:1091F400190608D50CEB040EB64503F07F033FF6C1
:109204007EAE04F8013B0132DFE7B9F1000F03D071
:1092140098F90020002A17DB029BD3B11AF80B201F
:1092240004F8012B0022019B18191044B0423FF6A8
:1092340066AE98F80000009904F8010B20460392EA
:109244000FF0F1FD039A14440AF1010A08F1010830
:10925400C6E798F8002055F822300093029B009846
:1092640045F82230FEF798FF421CDCE76FF00D0052
:1092740047E600BF2DE9F04F97B000AFD7F880B0B4
:109284003B62CBF3C0030446894690F802A0FA621D
:10929400BB6141B9457800780AEB800020444D4514
:1092A40017D8A0EB0409E378FB61BAF1000F02D0F0
:1092B4001BF0010F16D1FB6953BBFB6A1BB1494676
:1092C40020463A6A98474D4628465C37BD46BDE875
:1092D400F08F461C3046FEF75FFF0130304409F141
:1092E4000109DCE7626823787A62FA6A9900796195
:1092F40004EB8301002A40F001810E464FF0000880
:109304004D4601EB0A094E454CD101EB0A0610E02B
:109314001BF0020FD1D023789A007A61626804EBC3
:1093240083017A62FA6A002A77D14D46904601EBAE
:109334000A061BF0050F0CBF02230123FB62FB6925
:1093440006EB430A0BF00203BB625645BCD016F889
:10935400021B16F8013C54F82390994B994502D30B
:10936400984B994536D3BB69002B40D0786A0BF0F3
:109374000CFC00283BD0E9468AB06A46924B536104
:109384007B6AC2E906314FF4007313848F4B42F8B1
:10939400103F00234FF412518D4801F077F9023D3C
:1093A400CD46D2E716F8013BF96254F82300FEF7E4
:1093B400F3FED7F88430F96A01304BB1D7F888301E
:1093C40098453EBFD7F8843023F8180008F1010807
:1093D400054498E7BB6923B1786A0BF0D6FB0028F3
:1093E400C9D11BF0010F05D1FB6AED1AADE7BB6AC9
:1093F400002BAAD04846FEF7CFFED7F8843053B1ED
:10940400D7F8883098453FBFD7F88420431C22F80A
:10941400183008F10108054497E7BAF1000F73D03A
:109424001BF0040673D0D046002607F148005246CC
:109434003B61B9620FF0F7FCB96A3B6901EB0A02C0
:10944400BA62FA69F9695200FA60BA6A02EB410237
:109454003A610BF00202BA603A69B96A8A4258D199
:1094640062781BF0020F18BF00217A6208BF4FEA2E
:109474005801B2181BF0010FD2B240F09F801BF0CC
:10948400040F14BF40460020BB616270A070E170FD
:1094940020463A6A7969FB6A9847051EFFF614AFBD
:1094A400BB69414623707B6A3A6A6370FB6984F83E
:1094B40002A0E37007F14800FB6A9847B0F1000886
:1094C400C0F2BA807B69A9EB0A01C91AFB683A6A3F
:1094D400C91AD7E90A0398470028C0F2AF804FF0B1
:1094E400000BA84408EB000507F1380AB34571D313
:1094F40000213A6A0846FB6A9847E5E656464FF06B
:10950400000807F1380092E75646D04696E7B04681
:1095140094E7BA6A12F8021B12F8015CBA6254F8B2
:109524002500274A904202D3264A90421ED3BA69A4
:1095340032B1786A7B600BF028FB7B6800288BD102
:10954400BA6802BB08F1280207F1300C08F10100E7
:10955400944407F1580208F1020852FA80F00CF81A
:10956400101C5FFA88F800F8105C75E7BA693AB124
:10957400786A7B600BF009FB7B6800287FF46CAF92
:109584001BF0010F09D006F1280207F13000711C0D
:10959400161806F8205CCEB25EE71BF0040F3FF409
:1095A4005BAF08F1280207F1300008F1010102EB7A
:1095B400000808F8105C5FFA81F84DE7002063E7C3
:1095C4005491010088B8010058A101000400000171
:1095D400109601001BF80A3054F8239087F83730AE
:1095E400D7F884302BB3D7F888309B4521D2D7F8ED
:1095F400843033F81B8001213A6AFB6A07F1370093
:10960400984700281ADB0544B8F1000F06D14846F4
:10961400FEF7C2FD00F101081FFA88F841464846EA
:109624003A6AFB6A9847002808DB05440BF1010BF2
:109634005CE74FF00008DEE7454645E6054643E6AD
:10964400014B1860704700BFB0C5002080B50546C7
:109654000E461746984609F05DFD03460FF06EFD71
:109664000446DFF81890424649F80030394630463F
:10967400A84754F8090001F045FE00BF08000000A7
:1096840000B516220FF05AFD024B1A504FF0FF306E
:109694005DF804FB0C0000000F2800B508D90FF09A
:1096A4004DFD0922074B1A504FF0FF305DF804FBC3
:1096B4003022054B02FB0033D3E8AF3F002BEED042
:1096C4000020F3E70C000000BCC500203023434316
:1096D40030B50D4908330B44D3E8AF2F92B1541E73
:1096E400D3E8EF5F954204D1C3E8EC4FBCF1000F1F
:1096F400F6D1F1D1012A05D13023584300230A18A9
:109704000B50536030BD00BFB4C5002038B50446CB
:109714001546FFF7C1FF00280DDB30236343074ADA
:10972400D0184068086015B10C3313442B60302303
:109734005C43105938BD0020FCE700BFB4C50020CD
:1097440070B500254FF0FF334FF0FF3218480BF08F
:1097540063FA184BD3E8AF2F82B10135102D03F112
:109764003003F7D10FF0EAFC17224FF0FF35124B0C
:109774001A500F480BF052FA284670BD30246C433F
:10978400D3E8EF0F0130C3E8E10F0029F8D10B4E05
:10979400331932515A609A6204F10C0030440EF0CD
:1097A400F2FF04F1200030440FF0ECF8E1E700BFD1
:1097B40004CB0020BCC500200C000000B4C5002070
:1097C4002DE9F0413024164644430F4A1019115133
:1097D4004660C362B6B1F368A3B10FF0AFFC0B4FA0
:1097E4000C3450F807801319054640F20512304630
:1097F4000BF001FAB8F15F0F04D0EB595F2B08BFEF
:1098040045F80780BDE8F081B4C500200C000000D5
:10981400F8B50546FFF740FF002824DB30246C43ED
:10982400124F04F10C063E444FF0FF324FF0FF3369
:1098340030460BF0F1F93A1953689B688BB1D26A40
:10984400385912F4404F0AD0294698470446304606
:109854000BF0E4F92846FFF739FF2046F8BD984796
:10986400F4E71C46F3E74FF0FF34F6E7B4C50020F5
:10987400044608B5EFF31183202383F31288BFF362
:109884006F8F03F08FFC204601F0F2FC02480BF0CE
:10989400A3F90CF0FEF8FCE70CA201002DE9F04757
:1098A400058B04462807904611D4022905F00705C4
:1098B40040F0CC8020460BF02BFC78B10138218B92
:1098C400042811D8DFE800F0C2106D859500012945
:1098D4000CBF45F0100545F02005258388F3118859
:1098E400BFF36F8FBDE8F08701F0070AAA4500F0C7
:1098F400A5800027B9463E46A368002B00F0BC8033
:1099040041F00801218388F31188BFF36F8FA168A8
:10991400002900F0BA800D68002900F0B6803346B3
:1099240052462046D1F80480C047002D76D02B68DB
:1099340029461D46F0E701F007035A1F012A1BD8E8
:10994400002221F00701062B276889B2C4E900220E
:1099540009D13B4603E0628B013262831B68002B12
:10996400F9D141F00201204621830BF0D1FB0028FC
:109974007AD041F0200176E0042B0AD121F00701CE
:1099840089B2204621830BF0C3FB10B141F02001C2
:109994002183218B01F0070AAA454FD00027B9463D
:1099A400AAE7236921F0070141F00601062DD3F847
:1099B400009021832DD1B9F1000F3FD041F008016F
:1099C400218388F31188BFF36F8F20463949C84734
:1099D40029E021F00701236941F0040189B2042D33
:1099E400D3F804902183E6D000274FF0040A3E46C2
:1099F40082E721F00701236941F0050189B2052DB1
:109A0400D3F808902183D6D000274FF0050A3E46AC
:109A140072E700274FF0060A3E466DE72B4687E7BC
:109A2400B9F1000FD1D1EFF31188202383F3128809
:109A3400BFF36F8F238B23F008032383258BEA0660
:109A44002ED525F01003238305F007056669218BC5
:109A5400002EBFF670AF00232768C4E9003321F05D
:109A6400070141F001012183218B4FF0000901F02E
:109A7400070AAA457FF440AF002F9CD041F00801AB
:109A8400218388F31188BFF36F8F002FC8D03D68FE
:109A940039463346524620460BF066FB2F46F4E720
:109AA400AB067FF51BAF25F02003238305F00705E4
:109AB40000E700BF995101002DE9F7430F46064620
:109AC4000821C06A0BF075FC80463C68DFF84890BA
:109AD400241A3C6004EA0905AC4203D8002003B010
:109AE400BDE8F08308236A46214630460BF0F7FBB5
:109AF4000028F4D1694630460BF065FC40B1BDF84E
:109B04000230BDF8042005EA090513441D443C60F5
:109B1400A4EB0804E0E700BF0000FFFF73B50446B0
:109B24004FF6FF72C06A08210BF043FC00256368FE
:109B34000F4EADF800208DF80620E2681918334066
:109B44001344181A60606846ADF80210ADF804506A
:109B54000BF026FC694620460BF0F5FC2046211D3F
:109B64000BF0F6FB284663683340A36002B070BD77
:109B74000000FFFF2DE9F04704468AB000F1140706
:109B840038460EF000FEA06A8368DB689847E062FE
:109B940050B98D4A01218D480BF0E7FB6FF0150594
:109BA40028460AB0BDE8F087A06A8368DB68984756
:109BB4000368013B1F2B01D9854AEBE7E368B3F542
:109BC400803F08D94FF48032012100927F48814AB6
:109BD4000BF06CFEE2E7A06A216807AA0CF0A8F972
:109BE40008B17D4AD6E7E5682DB1089BB5FBF3F2D1
:109BF40003FB12550DB1794ACCE7238A012B01D816
:109C0400774AC7E7E36A029593F805904FF0FF336C
:109C14004FF0FF32384608F069FC0821E06A0BF087
:109C2400C8FBA8460646238A1FFA85FA534508D876
:109C3400238A434523D1384608F0D0FC6FF02C0525
:109C4400AEE7E1682B04891B13FA81F14A46082325
:109C5400204602910BF051FB78B1204602A90BF08B
:109C640077FB08F1010808234A46204602991FFAA7
:109C740088F80BF042FB0028DAD00135D3E79A4587
:109C84000BD1029908234A462046891B0BF035FB69
:109C940018B9204602A90BF05BFB204602A9FFF786
:109CA4000BFF054618B1384608F098FC78E7029B8C
:109CB4004FEA13484FEA08486360C4F80880D4E9BF
:109CC400011399420FD30823204603AA0BF007FB84
:109CD40005460028E7D103AB13F8012B91453DD18C
:109CE4000135082DF8D1636820461B0C1B0402A91A
:109CF40002930BF02DFB4A462046E36802990BF0D1
:109D0400FCFA051ECFDB63687ED04FF6FF7906EBC5
:109D14000308E3681FFA88F29B1B9A42CDF8088077
:109D240038D303212F4A29480BF01FFB20466168D2
:109D34000BF01DFB05460028B5D163682A4AE1688B
:109D440013400B44A3EB4603636013402046A36017
:109D54000BF021FC0546002D72D0A4E7204603A990
:109D64000BF031FB626810B9921B6260A7E7BDF883
:109D74001050BDF80E10E06AC4F8088029440BF0B6
:109D840018FB40449042A060EED1002DECD06FF05F
:109D94001C0580E008234146204605AA0BF09FFAE3
:109DA400054600287FF47FAF204605A90BF00BFB86
:109DB40038B1BDF814304B4503D1BDF81830002B31
:109DC4006FD0B044A5E700BF49A201003896010056
:109DD4006BA2010088A201002B9E0100B1A2010028
:109DE400C5A2010037A301000000FFFF4A46204638
:109DF4005B1A0BF082FA051EFFF655AF08D0E26A33
:109E0400A36812681344A360D4E901318B42EDD8EE
:109E14006168E36801EB46029A429CD1DFF8A880AE
:109E2400A26801EA08039A4295D020460BF09FFAF3
:109E3400054600287FF437AF636803EA0803A3608C
:109E4400E368A288A3EB46039A4220D0384608F080
:109E5400C5FB0123E268A374238A032100921B48F3
:109E64001B4A0BF023FD63689AB200920321194A3E
:109E740016481B0C0BF01AFDA3689AB2009203213A
:109E8400154A12481B0C0BF011FD002588E62046EC
:109E94000BF06AFB0546384608F0A0FB002DD8D02D
:109EA4007EE60E4A032109480BF05FFA63682046F8
:109EB4001B0C1B0402A902930BF04AFA20460299D8
:109EC4000BF055FA46E700BF0000FFFF389601008B
:109ED400E8A20100FFA2010011A3010022A30100D6
:109EE4002DE9F04F1D46837C91B004460291009207
:109EF40053B90121634A64480BF037FA6FF00C063A
:109F0400304611B0BDE8F08FC26A082110460BF04C
:109F140050FA2946019010460BF04BFAE368019A77
:109F24000746A3EB8203AB42C0F0A9801DB1009B9E
:109F3400002B00F0A48063680593204606AA05A9B7
:109F4400DDF814A00BF07CFA06460028D8D1BDF841
:109F54001830029A934206D06268059B9A42ECD16B
:109F6400002D36D1CCE7204606A90BF02CFA0028A8
:109F7400F2D0BDF81A80BDF81C3045B39D4228D1FB
:109F84004FEA1A4A4FEA0A4AD044AA46E36ADDF87D
:109F940000B01B685B4203F020030393DDF80C90D0
:109FA4004146D14528BFD14620464B4608AA0BF06E
:109FB40096F900284AD14A46584608A90EF048FFA7
:109FC40038B9BAEB090AC844CB44E7D198E7002B67
:109FD40096D0002F3DD1B84604F1140A4FF0FF3259
:109FE4004FF0FF33504608F081FA238A9E4243D053
:109FF400A168626808EB01039A422FD3029B2046B2
:10A00400ADF82030FF23009A8DF826302B46ADF8AA
:10A014002210ADF824500BF05DFA29460746E06A99
:10A024000BF0C7F9A3680344A36057B908A80BF061
:10A03400B7F9204608A90BF086FA002814BF074692
:10A044002F46504608F0CAFA3E4659E7C1DC064698
:10A0540056E7019B1F441FFA87F8BDE72046FFF728
:10A064005DFD07460028ECD120460BF094FA074624
:10A074000028E6D10136B8E76FF01B07E1E76FF07F
:10A0840015063DE735A20100389601002DE9FF478A
:10A094001E46837C04460F469046BDF830904BB96B
:10A0A4002C4801212C4A0BF060F96FF00C0004B02D
:10A0B400BDE8F0870821C06A0BF07BF9E368A3EBE5
:10A0C4004003B34243D30025D4F804A0CDF804A040
:10A0D4004D455146DDF804A009D9636853451ED1A6
:10A0E400BDF80830BB421AD06FF00100DFE720460C
:10A0F40002AA01A90BF0A4F90028D8D1BDF80830B0
:10A10400BB4206D1204602A90BF05DF908B1013526
:10A11400ADB26268019B9A42DAD15146E0E7BDF8DC
:10A124000C30002BE0D0A945DED8BDF80A00090C9C
:10A13400B3424FEA014128BF334601444246204618
:10A144000BF0CDF80028B2D1BDF80C00AFE76FF0EA
:10A154001500ACE73896010035A201002DE9F0475F
:10A16400044607464FF00109DFF8508014B9384619
:10A17400BDE8F08794FAA4F5B5FA85F509FA05F374
:10A184002E0108EB05156FEA030A24EA03042B7B6E
:10A19400002BEBD058F806301B694BB94644736862
:10A1A40004222846196807EA0A070BF0FCFADDE7DF
:10A1B400284698470028D9D1F0E700BF209701002E
:10A1C40030B5002289B00F490F480EF06AFD002215
:10A1D40000230024CDE906230E230C4DCDE90334DE
:10A1E4004FF440722846CDE90144094B09490094D3
:10A1F40008F0CCFC084928460EF0CEFB204609B0F6
:10A2040030BD00BF21A20000F0D0002060CC0020AF
:10A2140035A5000018E8002065A30100014808F0F6
:10A224005FBA00BF80CB00202DE9F047804621486B
:10A234000F460BF09CFA0646002833D0002528462A
:10A24400BDE8F087237B83B12368DB680BB120462C
:10A254009847636883F8069023681B69D3B96368D9
:10A264000422204619680BF09EFA01361034544536
:10A27400E8D3B8F1000FE2D0002DDFD02846FFF775
:10A284006DFF0546002FF7D000214FF4A4700EF0A7
:10A2940034FCF1E7204698470028E0D009FA06F399
:10A2A4001D43E2E705464FF00109034CDFF80CA01B
:10A2B400DDE700BF84D8002020970100309701001B
:10A2C400014B53F8200070478C97010008B50346F2
:10A2D40008462BB1044A136000F06EFC002008BD50
:10A2E4006FF01500FBE700BFB4C8002010B5044CA4
:10A2F400237813B9034808F0F3F90123237010BD40
:10A3040012E3002080CB002010B5044609480BF06E
:10A314002EFA3CB1084BD3E8EF1F0139C3E8E21F22
:10A32400002AF8D105480EF0C8FCBDE810400448E6
:10A3340008F0D6B97CD8002080D80020F0D00020C6
:10A3440080CB002000200146034BD3E8EF0FC3E885
:10A35400E21F002AF9D170477CD8002070B5FFF7BE
:10A36400F1FF0546074C084EB44200D370BD636844
:10A374005B792BB123685B6813B129462046984763
:10A384001034F1E7209701003097010010B5044C18
:10A39400044920460AF04BFD034B1C6010BD00BF6E
:10A3A40084CA00207897010074D8002000230D4A45
:10A3B40010B513700C4A4FF4004113600B4A0C485B
:10A3C4001360FFF783FFFFF7E1FF0A4B0A491846C2
:10A3D4008B4200D310BD1A1A5C681211013222712B
:10A3E4001033F5E713E300207CD8002080D8002048
:10A3F4006F570100209701003097010001460022A9
:10A40400002301480AF034BD84CA002001480AF040
:10A41400CDBD00BF84CA0020024B014618680AF073
:10A4240019BE00BF74D8002001480AF04EBE00BF18
:10A4340084CA002070B5274B1878002849D0FFF74C
:10A44400E5FF0546002841D1234B244C1B68002B13
:10A4540019DD0EF0DEFB4FF47A72A0FB020302FB5F
:10A464000131C30B43EA4143D4E900209B1A40F273
:10A47400E9324FEAD13161EB0001934271F10001FD
:10A4840001D3FFF76BFFD4E9003213F57A7342F17D
:10A494000002C4E90032BDE87040FFF7C5BF63683D
:10A4A4005B7923B12368294620461B6898471034FA
:10A4B400B442F4D32846FFF7AFFF094BD3E8EF1FAC
:10A4C4000139C3E8E21F002ABED0F7E7054C064E67
:10A4D400EEE770BD12E300207CD80020E8D0002015
:10A4E40080D80020209701003097010070B50D4DF1
:10A4F400297861B90120FFF797FE0B4C0B4EB4424B
:10A5040006D3FFF797FF0028FBD101232B7070BD02
:10A5140063685B791BB1236820469B6898471034B5
:10A52400EDE700BF13E300202097010030970100FE
:10A5340000212DE9F0470846FFF776FE044658B39C
:10A5440040F267684FF000090EF0F8FD1B4B1C4AFF
:10A554001B58136033B11B4B1B68092B02DD1A48CF
:10A5640008F0BEF80025194FDFF85CA044B120467E
:10A57400FFF7F4FD044618B94FF0FF384FF0FF39E8
:10A58400FFF758FF064628B9B5B942464B46504630
:10A5940008F0E0F83546E9E74FF0FF384FF0FF39AF
:10A5A400D2E72B689B691BB10022284611469847C5
:10A5B4001035BD42F5D3E8E7054DFAE70800000081
:10A5C40078D8002080D8002080CB0020309701006C
:10A5D4002097010013B518480BF0C9F8174B1B78E6
:10A5E40073B1EFF31184202383F31288BFF36F8FC9
:10A5F400FFF720FF84F31188BFF36F8F02B010BD03
:10A604000F4B1B68002BF9D050B9002200230D48D2
:10A61400CDE900234FF40042002309F075F8EDE77B
:10A624000928EBD107480EF048FB074802B0BDE803
:10A63400104008F055B800BF80D8002013E3002074
:10A6440078D80020F0D0002080CB002010B5064B35
:10A6540004461B6898472146A06004480AF087FC1A
:10A66400BDE81040FFF7B6BFB4C8002084CA00207C
:10A67400044A054B9B1AB1EBD30F34BF52F8310097
:10A684000020704708960100209701002DE9F04F43
:10A694008FB0C1F34A2804AF0D469146B8607B6081
:10A6A4000C0DB8F1000F63D000264FF0040B4FF0EF
:10A6B4000A0A07F11403C7F80C80C7E907667E622B
:10A6C4000193CDF808B0CDF800A007F11C03324681
:10A6D4004846F968FEF7CEFDB0F5006F03461CD37B
:10A6E4006C468AB0D9F8041004AB26481A46C3E96C
:10A6F400050140F2FF71D9614FF400711984224BB6
:10A7040042F8103F4FF4125133462048FFF7BEFF82
:10A71400A5462C37BD46BDE8F08FC0F30A0804F106
:10A724001700184420F0070080083B60FFF766FE1E
:10A7340068F35325044690B13B6800F11001C7E962
:10A74400083607F11403F961CDE900A3CDF808B088
:10A7540048460F4AF96807F11C03FEF78BFD68F3BE
:10A7640053252A4620467B68B9680BF03CF8D0E7AD
:10A7740004F1170020F007008008FFF73FFE0446AD
:10A78400EDE700BF7AA30100040000015896010020
:10A79400BD5701002DE9F04F87B00446DDE9105A9A
:10A7A400DDE91279934698460391BFB13B46524680
:10A7B40010210020CDF80090CDF81490FEF788FB0E
:10A7C400B0F5006F06460AD340F2FF730221174A20
:10A7D400174807B0BDE8F04F0BF05EB83E4605F1F0
:10A7E4001700304420F007008008FFF707FE04F04C
:10A7F40007040BF0070BE40044EA8B1444EA4624F4
:10A8040044EA0554054640B13FB13B465246314601
:10A81400CDF800901030FEF75BFB434622462846F5
:10A82400039907B0BDE8F04F0AF0DDBFB9A30100FA
:10A8340058960100406820B1034BC01A40F3CF0082
:10A8440070474FF0FF307047089601000EB403B50F
:10A8540003AB53F8042B01460448019301F088F834
:10A8640002B05DF804EB03B0704700BFFF5801006D
:10A87400CA0605D48B064CBF02490349FFF7E6BF5D
:10A88400704700BF43B3010042B301002DE9F04F0C
:10A8940089B09B46149B9DF84CA00693159B0446D7
:10A8A4000593169B0D469046179E0493BAF1000F2C
:10A8B40000F09D8006F4807307930AF072FF06F09F
:10A8C4000209024600283ED020469149FFF7BEFF08
:10A8D4000746B9F1000F08D016F0440F35D12A46C7
:10A8E40020468C49FFF7B2FF074406F0010353B139
:10A8F400894B204653F82A20884B8949002A08BFEF
:10A904001A46FFF7A3FF06F48073002B49D006F024
:10A914000803002B63D1B8F1000F66D042462046ED
:10A924008049FFF793FF0546069B3D44002B6DD1FC
:10A93400049B002B73D1F30700F1E48031462046D9
:10A94400FFF796FFD8E00746C3E7774B186800285F
:10A95400CAD0764B4FF47A791B684FF03C0CB5FBA8
:10A96400F3F5B5FBF0F14FF4616300FB115509FBFE
:10A9740005F5B1FBF3F2B5FBF0FE03FB121100FB8E
:10A984001E55B1FBFCF309FB05F5B5FBF0F50CFB1B
:10A99400131120460091CDE901E56549FFF756FF03
:10A9A400A2E706F00803EBB1624B204653F82A20D5
:10A9B4006149FFF74BFF0546B8F1000F05D0424649
:10A9C40020465849FFF742FF0544BBF1000FABD0C6
:10A9D4005A4620465949FFF739FF0544A4E74FF08A
:10A9E400000BE1E706F00805E6E745469CE7BBF106
:10A9F400010F069B06D1002B64D1049B002B7BD056
:10AA040000250CE0002BF8D04D485CE04D48069B37
:10AA140022464D490AF088F8049B002B68D0DFF8E1
:10AA24002C81DFF82C91049F3146102F204628BF3B
:10AA340010274FF0000BFFF71BFF5D4545DC059B1E
:10AA4400494620461A78FFF701FF4FF0010B1BF02F
:10AA5400070F03D141462046FFF7F8FE5F453BD977
:10AA6400059B4946204613F80B20FFF7EFFE0BF138
:10AA7400010BBBF1100FEAD14FF0000B2046354912
:10AA8400FFF7E4FE5A46059B20469A5CA2F120019A
:10AA94005F2928BF2E223049FFF7D8FE0BF1010BA6
:10AAA400BBF1100F1DD01BF0070F03D14146204608
:10AAB400FFF7CCFE5F455A46E5D841462046FFF7EE
:10AAC400C5FEEBE71F485546A1E741462046FFF780
:10AAD400BDFE0BF1010BB0E720462049FFF7B6FE9F
:10AAE400C5E7059B3B440593049BDB1B04939AD168
:10AAF400BAF1000F7FF41FAF204609B0BDE8F04F54
:10AB04000AF0EEBE2046054A0549FFF79FFE15E709
:10AB1400F6A30100FAA301009C970100F1A3010030
:10AB240038B001001FA401008CD8002088D8002070
:10AB340003A40100B097010023A4010029A401008B
:10AB44002D590100FF58010075B9000036A4010019
:10AB54002EA4010038A401006AB4010034A4010049
:10AB640042F20F7373B58B4228BF0B460568044647
:10AB7400052168460D4A08F071FE064663682846BA
:10AB84000B225B680A490AF09DFE636832466946F7
:10AB940028465B680AF096FE63681B2228465B68B9
:10ABA40004490AF08FFE02B070BD00BF149C01007E
:10ABB40056A401003AA4010000210123064A904250
:10ABC40006D8064A01B901231360054B1860704783
:10ABD400012140085B00F2E740420F0088D80020C2
:10ABE4008CD80020F8B50D460446064F4618B442EA
:10ABF40001D12846F8BD14F8011BBB6801485B6805
:10AC04009847F4E7BC920100014B036000207047B1
:10AC1400F897010008B5044809F0DEFFBDE80840D4
:10AC2400024809F0D9BF00BFA2A40100D7A40100C3
:10AC340008B50348034A0021121A0AF005FF08BDAB
:10AC440058CC002014E80020074808B5074A0849F2
:10AC5400121A0AF0FBFEBDE808400648064A0749F6
:10AC6400121A0AF0F3BE00BF80C5002054CC0020A5
:10AC7400A0B8010068C5002080C5002088B8010084
:10AC84002DE9F04706460C4600AF002936D0D1E93D
:10AC94000012E9468AB06D46A3684FF0050AA8463B
:10ACA4001F48C5E90723C5E9050148F810AF00238B
:10ACB40042464FF421511B48FFF7E8FCD4E9031244
:10ACC400CD466369AD461848C5E90723C5E90501C2
:10ACD400C5F810A0002342464FF421511148FFF754
:10ACE400D5FCCD46E3690121104A0E480AF0D4FD93
:10ACF400A36901210E4A0B480AF0CEFD012E07D1AB
:10AD0400EFF305830B4A31460648103B0AF0C4FDB5
:10AD14002146304607F030FABD46BDE8F08700BF53
:10AD240005A50100B896010034A5010063A5010042
:10AD340072A50100A0A5010030BFFFF7FDBF00BF51
:10AD44002DE9F04105460B4EDFF82C80324606EB28
:10AD54000807CC1B204609490EF065F8A0194246A5
:10AD64000021083C0EF06CF86C6707F10800BDE8A0
:10AD7400F08100BF000000000800000030970100CF
:10AD8400054B5A699B689A421FBF044A536843F0B3
:10AD940080535360704700BFD8E2002000ED00E00C
:10ADA40070B52A4C06460D4629482A490AF05BFE2E
:10ADB400A36ADB0647D5264827490AF054FE11202A
:10ADC400A36A1C0704D5224824490AF04CFE122029
:10ADD4001E4CA36A990712D521491D480AF043FE67
:10ADE400636BA26A120609D501211E4A18480AF0AB
:10ADF40053FD1EB1A36A23F08003A3621320134CF6
:10AE0400A36ADE0704D5124817490AF02CFE142061
:10AE1400A36A9C0604D50E4814490AF024FE1520A2
:10AE24000A4B9A6AD10658BF9A6A9A6A920642BF36
:10AE34005A6A22F400525A629A6A42F0FF029A62F3
:10AE440000232B7070BD1020BAE700BF00ED00E0B6
:10AE5400B8960100B3A50100C9A50100FCA5010035
:10AE64000FA6010027A601003DA601005CA6010073
:10AE740010B5244C244925480AF0F5FDA36A99012C
:10AE84003ED5224822490AF0EEFD1E20A36ADA01CB
:10AE940004D51E481F490AF0E6FD1F20194CA36A79
:10AEA400DB0204D519481C490AF0DDFD0220A36A1F
:10AEB4001C0304D5154819490AF0D5FD2120114C6D
:10AEC400A36A590304D5114815490AF0CCFD222080
:10AED400A36A9A0304D50D4812490AF0C4FD23203D
:10AEE400084CA36ADB0304D508480F490AF0BBFDEC
:10AEF4002420A36A6FEA03436FEA1343A36210BDDD
:10AF04001D20C3E700ED00E08BA60100B896010008
:10AF1400A3A60100B6A60100D0A60100FAA601006E
:10AF240018A701003DA7010057A7010070B5294CDF
:10AF340006460D46284829490AF095FDA36AD90416
:10AF44003CD5254826490AF08EFD1720A36A1A0528
:10AF540004D5214823490AF086FD18201D4CA36A14
:10AF64009B0512D51C4820490AF07DFDA36BA26AFB
:10AF7400100409D501211D4A17480AF08DFC1EB1A1
:10AF8400A36A23F40043A3621920124CA36A59054F
:10AF940004D5114816490AF066FD1A20A36ADA0599
:10AFA4000ED50D4813490AF05EFD1B20094A936A29
:10AFB40043F47F43936200232B7070BD1620C5E7D2
:10AFC400A36A9B04F2D504480B490AF04CFD1C20EB
:10AFD400ECE700BF00ED00E0B896010082A7010095
:10AFE40098A70100FCA50100A9A70100C2A70100C0
:10AFF400D7A70100F2A701005CA601002DE9F047E4
:10B004008AB0694B0446D3F804A089461646002545
:10B0140000AFCAF3080885F31188BFF36F8F02F0FD
:10B024007F43B3F17F4F1ED1D3071CD4500603D402
:10B03400110708D4012508E05C495D480AF013FDB6
:10B0440016F0040600D04C4600250023FB71A8F13D
:10B054000303092B00F28680DFE803F0077C7F7886
:10B064008484848484822C46EFE7524950480AF051
:10B07400FAFC00234C4EFB71F36A9A0705D54E493E
:10B084004B480AF0F0FC002329E0F36A002B01DAB4
:10B094004A49F5E7F36A5B00F5D5494944480AF0A3
:10B0A400E2FC7369A26943F480737361BFF34F8F49
:10B0B400BFF36F8F736932F8022C23F480737361CA
:10B0C400BFF34F8FBFF36F8F4DF602739A4228D1AF
:10B0D400236801213B4A36480AF0DEFB2368FA79EB
:10B0E400DAB907F1080604F1200C324620686168D9
:10B0F400083403C264451646F7D17A6A002D4ED04F
:10B10400C2F3080121B96FEA52226FEA42227A623D
:10B11400184607F10801FFF7B3FD2837BD46BDE81F
:10B12400F087B36ADBB223B10120F91DFFF738FEC3
:10B134000EE0B36A13F47F4F04D00120F91DFFF72A
:10B14400F5FE05E0B36AB3F5803F9CD3FFF790FEAC
:10B154000346C4E70020F91DE8E70020F91DEEE7E7
:10B1640019498DE7194A6E461AF4F87F8AB0184BCC
:10B1740018BF13466A461749C2E90513A8F110031C
:10B18400D3614FF400731384134B42F8103F002330
:10B194004FF411510648FFF779FAB54673E722F4E4
:10B1A400FF7222F00102B2E700ED00E038A80100CE
:10B1B400B89601005BA8010072A8010093A80100E1
:10B1C400A1A80100C0A80100DCA801001FA801007B
:10B1D4000AA8010000A9010004000001064B5A69F5
:10B1E40042F010025A615A6942F480625A615A6903
:10B1F40022F008025A61704700ED00E0EFF3088086
:10B20400EFF3098101B57246FFF7F8FE01BD00BFF7
:10B21400002080F31488BFF36F8F002080F30A8826
:10B2240080F30B880F4880F308880BF04EFC002055
:10B234000D490860BFF34F8F00F03EF8202080F3E3
:10B2440011880A484FF40061401880F30988EFF32D
:10B2540014800221084380F31488BFF36F8F00F039
:10B2640001F9000058FD002094ED00E018F00020E2
:10B27400BFF34F8F0549064BCA6802F4E0621343DB
:10B28400CB60BFF34F8F00BFFDE700BF00ED00E0D0
:10B294000400FA05002318460649D1F89020C2F3A9
:10B2A4000722934200DB7047C1F89830C1F8A00030
:10B2B4000133F6E700ED00E010B572B6002484F324
:10B2C4001388FFF7E7FF23464FF0FF300C4A03F1E2
:10B2D40020010133102B42F82100F8D100234FF054
:10B2E400FF30074A03F160010133102B42F82100BB
:10B2F400F8D162B6BFF34F8FBFF36F8F10BD00BF9D
:10B3040000E100E0084B9B6883420BD1EFF3058317
:10B3140043B1064B5A6842F080525A605A6A22F48A
:10B3240000425A6207F0FCBED8E2002000ED00E0C3
:10B3340016498A6882F881E04FF030001044EFF338
:10B34400098C80E8F01F202080F31288BFF36F8FF0
:10B354000F4F4FF000664A698A603E60506F0D4C93
:10B36400206092F981E0906F0023936780F3118845
:10B3740002F1300090E8F01F8CF3098802F100001C
:10B3840004B50AF078FBBDE804407047D8E2002019
:10B3940004ED00E0BCD800201EF0040F0CBFEFF356
:10B3A4000880EFF30980816911F8021C0229FFD09B
:10B3B40001B572460AF04CFB01BD00BF40B2002843
:10B3C40007DB01234109034A00F01F00834042F8D0
:10B3D4002130704700E100E040B200280CDB01227C
:10B3E4000649430900F01F008240203341F823201E
:10B3F400BFF34F8FBFF36F8F704700BF00E100E0D2
:10B40400054B420953F82220012300F01F0003FAE0
:10B4140000F01040704700BF00E100E040B2002897
:10B4240001F10101ACBF00F16040064B4FEA41114C
:10B43400C9B2ABBF00F5614000F00F0080F8001303
:10B444001954704714ED00E0044B054A23F07F03C0
:10B454009360BFF34F8FBFF36F8F7047008000007E
:10B4640000ED00E008B5FFF7EFFF074AD2F8883097
:10B4740023F47003C2F88830FFF7DAFBFFF7E4FB2C
:10B4840000F04AF806F098FF00ED00E042F8203C96
:10B49400009B0D4942F81C3C019B21F0010142F83C
:10B4A400183C029B42F8081C42F8143C4FF080738D
:10B4B40042F8043C002383674FF43C43203A02657E
:10B4C400C0F88030704700BF5196000000B50D4BA6
:10B4D40015469860426F0C4B0E461A60436E83F318
:10B4E4000B882C4686F309880020044B9847204695
:10B4F400002100220023024C20470000895A010049
:10B5040051960000D8E20020BCD800201022014B44
:10B514001A61704700ED00E0002320210348C2189F
:10B524000133412B82F80013F9D1704700E100E0A8
:10B5340008B5EFF30583064A103B02EBC30152F84A
:10B54400330049688847BDE80840FFF719BC00BFCD
:10B554005C9301001FB5094C094A2346012109489F
:10B5640000F012F900230393074B0121E41A01A808
:10B574000193029400F012F904B010BD00000420FD
:10B5840080C50020F897010058CC002010B50C7A33
:10B594000B6804F01F0223F01F031A43CB686409ED
:10B5A40023F01F03054943EA440343F00103C1F8B0
:10B5B4009800C1F89C20C1F8A03010BD00ED00E057
:10B5C40010B50A4BD3F89030C3F30723013B9842DC
:10B5D40008D901210346064A06480AF05DF96FF0CE
:10B5E400150010BDFFF7D2FFFBE700BF00ED00E040
:10B5F40017A90100889601002DE9F04F89461446E9
:10B6040006464FF00008514D85B0C84527DAD6F8F4
:10B6140004A0BAF1000F44D0BAF11F0F17D91AF0E1
:10B624001F0F14D1D6F800B01BF01F0F0FD15846CE
:10B634000AF04BFA07460AEB0B0001380AF045FA08
:10B64400874210D06FF01507414A3B4601E043465C
:10B65400404A012140480AF01FF96FF015042046C2
:10B6640005B0BDE8F08F17F1160FEDD0BC42EBDD4D
:10B67400C5F89870D5F89C10C5F89870D5F8A03026
:10B6840021F01F0143F01F0BD6E900321A449942FE
:10B6940002F1FF3A1DD1D34507D13146F8B20AF081
:10B6A4001DFA08F101080C36AFE73146C5F8987069
:10B6B400D5F89C3022F01F0203F01F031343C5F892
:10B6C4009C30E0B20AF00AFA10F1160FC5D0441CFF
:10B6D400E7E7C5F89870D5F8A020013B23F01F03D5
:10B6E40002F01F021343D3453146E0B2C5F8A0303F
:10B6F400E8D00AF0F3F910F1160FAED0C5F898703F
:10B70400D5F89C209DF808300BF1FF3B62F304034D
:10B714008DF80830D5F8A0309DF808205B0863F355
:10B7240047128DF80820D6E900321344009323F021
:10B734001F035B44A3EB0A03013023F01F03694694
:10B74400C0B20393FFF73CFFBEE700BF00ED00E08B
:10B7540060A901003DA90100889601000522044B5F
:10B76400C3F89420BFF34F8FBFF36F8F704700BFB0
:10B7740000ED00E0BFF35F8F0022024BC3F894207A
:10B78400704700BF00ED00E010B5034C2278FFF7CE
:10B7940033FF207010BD00BF15E300202DE9F74FE3
:10B7A400294D8A4606464FF00008AB46274FD04540
:10B7B4001BDAD6F80490B9F1000F3FD0316808467F
:10B7C40001910AF082F90199044609EB010001385C
:10B7D4000AF07BF984424FF014021D4B08D002FB9F
:10B7E40008F36FF015024BF8032003B0BDE8F08FA7
:10B7F40014F1160F2C60F8D01978A142F5DD02FB84
:10B8040008B0C7F89840C7F89840D7F89C4000F1B2
:10B814000801007B64F304000871D7F8A0000C79D8
:10B82400400860F347140C71D7F89C1021F01F01F5
:10B834006960D7F8A01021F01F01296108F10108FF
:10B8440014350C36B3E700BFC0D8002000ED00E08B
:10B8540015E30020F0B54149414CD1F890302568FA
:10B86400C3F307239D4287B075D80020FFF782FFFA
:10B874003C4BC1F8C030854216D13B4C01A8257021
:10B88400FFF7C2F900250646384FAE4213D1002017
:10B8940023783249D1F89020C2F30722934254DB33
:10B8A400FFF75CFF00202FE0616801EB0011FFF758
:10B8B4006DFE0130DFE70199280101EB0513DA6819
:10B8C4003A40B2F5001F21D0B2F5800F2BD0B2F56B
:10B8D400801F38D15A689B680958013B22F01F0029
:10B8E40003440120844623F01F0340EA4C10CDE9B1
:10B8F40002218DF8100002A920780593FFF760FE5D
:10B9040000281DDA6FF0150007B0F0BD5A689B6877
:10B914000958013B22F01F0003444FF0020C0120A0
:10B9240023F01F03E1E75A689B680958013B22F0A2
:10B934001F0003444FF0000C022023F01F03D4E740
:10B9440023780133237001359FE7C1F89830C1F89B
:10B95400A00001339EE74FF0FF30D5E700ED00E093
:10B9640004980100AAFF440015E300200000F0FF42
:10B97400F0B587B007460E461446002110226846EB
:10B984001D460DF05DFA02238DF80230054B2A4660
:10B9940021466846CDE90476019308F09DF907B085
:10B9A400F0BD00BF135B010008B5024B1B6898474C
:10B9B400002008BDD4D80020034B044A18609378B3
:10B9C40043F0020393707047D4D80020C0C800200D
:10B9D40008B50649064821F00701C1F1005202F5F5
:10B9E400802209F049F8002008BD00BFE7050120C6
:10B9F400D8D8002038B50025074C20460CF0C3FEEB
:10BA040004F1140001350CF0BDFF052D04F12404EC
:10BA1400F3D1002038BD00BFE4D8002038B500249D
:10BA2400054D284601340CF0ADFF052C05F10C053D
:10BA3400F7D1002038BD00BF98D9002038B50024C4
:10BA4400054D284601340CF09EFE052C05F1140525
:10BA5400F7D1002038BD00BFD4D900200A4B30B53F
:10BA64001C460025094A191BB1F5407F01D9002065
:10BA740030BD506803F19001C3E924200160C03354
:10BA840003F8085C5160EEE728D10020D0C80020FC
:10BA94000122024B0020C3F8402570470090034068
:10BAA40048B1054B054A1B68B3FBF2F35843044BFA
:10BAB40043F001031847704708CA002040420F00B2
:10BAC4006097010008B54FF6FF723F230348C0E9B1
:10BAD400002303F009FC002008BD00BF38DA002071
:10BAE40010B5094C0A44914200D110BD11F8013B34
:10BAF40058400309E35C0001C0B243401809205CCC
:10BB04001B01DBB25840EEE717AA0100034A044BBD
:10BB14001168928819609A80704700BF27AA0100B3
:10BB240016E300202DE9F04105460E461746134C56
:10BB3400DFF84C80444508D30DF000FB6A22114B1A
:10BB44001A504FF0FF30BDE8F0812368AB4200D0BB
:10BB54008BB93A4631462846A368984758B10DF048
:10BB6400EDFA0022074B3146C2503A462846E368B4
:10BB7400BDE8F04118471034DCE700BFF895010038
:10BB8400089601000C00000073B50D461646694680
:10BB940001AAFDF7BBFD0446B0B1009B9B69DBB174
:10BBA4004FF0FF324FF0FF33019809F0F4FF009B90
:10BBB4002046324629469B6998470446019809F075
:10BBC400ECFF204602B070BD09230DF0B7FA034A1A
:10BBD4004FF0FF341350F4E75F23F6E70C00000046
:10BBE4002DE9FF410D46164602A903AA1F46FDF79B
:10BBF4008DFD0446E8B1029B5B6A13B34FF0FF323C
:10BC04004FF0FF33039809F0C6FF0B9B20460193C6
:10BC14000A9B32460093029B2946D3F824803B4674
:10BC2400C0470446039809F0B8FF204604B0BDE8B5
:10BC3400F08109230DF082FA034A4FF0FF341350C8
:10BC4400F3E75F23F6E700BF0C0000002DE9FF4196
:10BC54000D46164602A903AA1F46FDF757FD0446E2
:10BC6400D8B1029B1B6B03B34FF0FF324FF0FF338D
:10BC7400039809F090FF0A9B20460093029B3246EA
:10BC8400D3F8308029463B46C0470446039809F060
:10BC940084FF204604B0BDE8F08109230DF04EFA7C
:10BCA400034A4FF0FF341350F3E75F23F6E700BF76
:10BCB4000C0000000122024B1860024B1A707047FE
:10BCC40040DA002056E300202DE9F0410D460646F7
:10BCD400F8B1F1B10846FCF75FFA08281CD8114FF7
:10BCE400DFF84480441C474508D32246294606F120
:10BCF4000C000DF098F80020BDE8F081B74206D0A2
:10BD04002246294607F10C000DF0A2F838B1443759
:10BD1400E9E76FF01500EFE76FF05A00ECE76FF01A
:10BD24007700E9E7C8CB00200CCC00202DE9FF41C7
:10BD34004FF0FF324FF0FF33244809F089FF244CC1
:10BD4400244E254D254FB44205D3204804B0BDE808
:10BD5400F04109F092BF00222046C4E90322227573
:10BD640009F040FFD0F80880B8F1000F14D0D8F8DB
:10BD740000308BB104F118000CF005FD04F12C0027
:10BD84000CF001FDD8F800302046984794F8403074
:10BD940023F0030384F84030237B83B9204609F061
:10BDA400FCFF70B10E4A1368591C11600D4A092139
:10BDB40001A807F053FD204601A9FFF785FF44348D
:10BDC400C1E72B685A1C2A603A46F0E72CCB0020C6
:10BDD400C8CB00200CCC002044DA002035AA010096
:10BDE40048DA00202EAA010038B5074C074DAC42B2
:10BDF40000D338BD0321204609F001FF10B92046C5
:10BE040009F099FF4434F2E7C8CB00200CCC0020A1
:10BE140001282DE9F8430C46164637D100234C1E61
:10BE2400136019461A461D4614F8010F18B12E283E
:10BE34001BD101339BB2012909D9092A03D903294A
:10BE440007D1632A05D86FF01500BDE8F8830029EF
:10BE5400F9D0FF2AF7D8725522781AB10135EDB21C
:10BE6400042D10D1032B7BD0EDE73038C7B2092F56
:10BE7400E9D80131C9B20429E5D002EB820200EB12
:10BE8400420082B2D0E700221146CDE70228DAD17F
:10BE94002E2120460CF0ECFF237800280CBF082745
:10BEA40006273A2B08BF01342046FCF775F9002217
:10BEB4004249824223DB0025A8462378002BC2D0C6
:10BEC4003A2B41D010220021204607F013FD102206
:10BED40081460021204607F00DFDC9F3072949EAF0
:10BEE400002926F815903A2120460CF0C1FFD8B15C
:10BEF400441C0135AF42E0DC062F31D133E0A35CB2
:10BF0400A3F13005092D09D9462B09D82D2B9AD92F
:10BF14002E3BDBB221FA03F3DB0794D50132C8E7E9
:10BF2400613B052BFAD98EE77B1EAB428BDC0135D6
:10BF3400AF4288DC062F13D185E706EB450306F8EC
:10BF4400158083F801800135BD42F6DB3A21204695
:10BF54000CF0E6FFA0421ED1062F03D06378F3B99C
:10BF6400002072E7013400250B362378002B3FF4C0
:10BF74006AAF00210A22204607F0BCFC2E2106F8F5
:10BF8400010F20460CF074FFB0B10135042D00F10F
:10BF94000104EAD1E4E7062F08BF00F1FF307D1E5B
:10BFA400013010F8013D3A2B02D1013DFFF44BAFB3
:10BFB400A042F6D101349CE7032D54E70110F801A7
:10BFC400084B70B5C31A0D4607499B1004465943E4
:10BFD4004022064809F0FAFE2B4601462046BDE8F9
:10BFE4007040184760DA0020B76DDBB65C92010040
:10BFF400402373B50B4C0093041B0B460D460A49B2
:10C00400A41061430646094A094809F00AFF011EC3
:10C0140005DA30462B4602B0BDE87040184702B03E
:10C0240070BD00BF60DA0020B76DDBB68F5E010023
:10C034005C920100F8B50022012105460520FFF7B6
:10C04400EDF9104803F078F90446B8B903F094F90F
:10C054002F690D49384609F0AAF8031E09DB0126A9
:10C064003E642D69084905F11C0009F0A0F8031E7F
:10C0740002DA1C462046F8BDEE64FBE76FF00404C8
:10C08400F8E700BFC9C100002C9801007FB5002269
:10C094000123CDE9022304ABCDE90433094A6B46FD
:10C0A400CDF800D0CDF804D009F0E8FE002805DB77
:10C0B4004FF480420023684606F04CFB07B05DF85D
:10C0C40004FB00BFA15E010010B5EFF3118420232F
:10C0D40083F31288BFF36F8F074A136823F00201BA
:10C0E400DB07116002D401200AF044FD84F31188B7
:10C0F400BFF36F8F10BD00BFB0DA00200C22104BCD
:10C10400014602FB0033002030B4D3E90E52986399
:10C11400EFF31180202484F31288BFF36F8F1C6C1B
:10C1240004F0C00444F002041C6480F31188BFF3DB
:10C134006F8F1DB12B4630BC0248184730BC704786
:10C1440060DA00205C92010010B4EFF31182202326
:10C1540083F31288BFF36F8F1748016841F002041C
:10C164000460C80707D482F31188BFF36F8F0120DE
:10C1740010BC0AF0F7BC1149D1F80C04D1F80C1426
:10C18400C907F0D5EFF3118083F31288BFF36F8FE3
:10C194000B490B6C03F0C00343F002030B6480F300
:10C1A4001188BFF36F8F82F31188BFF36F8F002064
:10C1B40010BCFFF7A3BF00BFB0DA0020005000405E
:10C1C40060DA002010B1012804D07047034B1B6CC7
:10C1D4005B0701D1FFF792BF704700BF60DA002010
:10C1E4002DE9F041012207463449D1E8EF3FC1E887
:10C1F400E02F0028F9D133B9314932484B60CB6084
:10C204008A6008F0E7FF7B1E012B28D8012F06D196
:10C214002D4BD3F81C3403F00303022B1FD00CF076
:10C22400B5FB0546E8B9294B1B78D3B10222064673
:10C23400254BC3F80823244CDFF89480D4F8182441
:10C24400D4F81834D20315D503F00303022B01D01C
:10C25400012F0FD16DB386F31188BFF36F8FBDE843
:10C26400F081EFF31186202383F31288BFF36F8FDD
:10C274000125E0E7C5B1304609F018FCD4F81835BB
:10C28400DBB2012BDAD1D4F80421002AD6D0002263
:10C29400C4F80421D4F804210222C4F81825202269
:10C2A400C8F88021A360C9E7002121200CF025FCF7
:10C2B400E4E70222044BC3F80423D0E75CDA00204D
:10C2C4004CDA00207CDA0020005000400FE8002007
:10C2D40000E100E008B507480CF0AFF938B10648B2
:10C2E400FFF76AFB0448FDF7ABF9002008BD6FF0C7
:10C2F4001200FBE7BC92010001C300000A2838B514
:10C304000446074D04D1AB680D2128465B68984765
:10C31400AB6803485B68E1B29847204638BD00BF6C
:10C32400BC920100024B0B6001231360704700BFF5
:10C33400B4DA0020004870475098010007B503465E
:10C34400054A00910548012109F0B0FA6FF0150083
:10C3540003B05DF804FB00BF68AA01002896010041
:10C3640010B50122064811460CF0A9FA0AF05AFE4B
:10C37400044C20600AF053FE6060002010BD00BF32
:10C38400BCDA0020B4DA0020F7B50E4614460AF0F1
:10C3940046FE21460546304609F0D7FD374660B3D0
:10C3A400B6FBF5F305FB136323B9B4FBF5F305FB07
:10C3B40013434BB13346134A00941348012109F047
:10C3C40075FA6FF0150002E0A54202D9002003B00F
:10C3D400F0BD4FF0FF324FF0FF330C4806F0BAF9CE
:10C3E4000AF01DFE0546384603F0D8FA641B2F44B4
:10C3F400F9D1064806F074F9E8E7054A3346009493
:10C40400DBE700BF85AA010028960100BCDA002002
:10C4140068AA0100F7B50E461946304617461C4671
:10C4240009F093FD50B93346174A00941748012187
:10C4340009F03CFA6FF0150003B0F0BD46EA0405BC
:10C4440015F0030503D0124A33460094EEE7A4B175
:10C454004FF0FF324FF0FF330E4806F07BF924F023
:10C464000304A54205EB060009D10B4AD2F80034B7
:10C47400DB07FBD5074806F033F90020DCE77959E0
:10C4840003F0A4FA0435ECE768AA01002896010039
:10C49400A4AA0100BCDA002000900340430970B54F
:10C4A40007D10B4B596821B101250C68094E854011
:10C4B40001B970BD8A682A4002D030464B6898475B
:10C4C4001CB1236821461C46F2E72346FAE700BF65
:10C4D400D4DA00207C9201002DE9F04340F20635C5
:10C4E4004768D00648BF4FF0030C3B7C02EA0505C1
:10C4F40058BFC2F3401C87B001F01F06B5F5837F17
:10C50400144646EA43168DF803C042D00DD8062DD2
:10C5140016D005D8A5B1022D3DD06FF0150035E039
:10C52400B5F5807FF9D101250AE040F20222954257
:10C5340033D0B5F5407F32D0B5F5007FEDD102257B
:10C544000123220303FA01F12BD57B689960B868B3
:10C5540060BB06F01F03760971D13B4A84F4803135
:10C5640002EB8302D2F80032C1F30041C4F3404429
:10C5740023F4E16344EA410423F007031C4344EA3F
:10C584008C0444EA0524C2F80042002007B0BDE848
:10C59400F0830725D4E70425D2E70525D0E7032552
:10C5A400CEE7630344BF7B68D960D0E731460DF121
:10C5B40002020AF0D5FC14F4403F80460CD1314607
:10C5C400B8680AF0DFFCB8F1000FDED19DF8021064
:10C5D400B86803F06DF8D8E74FF0000901ABCDE976
:10C5E4000199CDE90439CDF80C903146B86803AA15
:10C5F4000AF0B1FB4845C8DB14F4003314D09DF8AD
:10C60400033084F48034C4F300448DF80E308DF884
:10C614000C508DF80D404B463146B86803AA0AF019
:10C6240035FC0028CFDAB0E7CDE904330DF103037C
:10C6340003933146B86803AA0AF08DFBF1E780330F
:10C6440050F82330FFDE00BF0025844038B545682C
:10C65400A86890B10AF090FC014670B9A86802F08D
:10C66400F5FF044658B902460649A8680AF075FC65
:10C67400224605213120FEF7D1FE002038BD6FF09F
:10C684000400FBE7A1C40000F0B544681646A068A6
:10C69400227C01F01F0587B045EA4215002864D0CA
:10C6A400B6F5001F04D129460AF0B4FC00204DE081
:10C6B4000020B6F5800F01AA0190506035D1B3F186
:10C6C400007F14BF052304238DF804300023CDE933
:10C6D40004230393E3680DF1030723FA01F111F036
:10C6E400010135D1B6F1A07F32D105F01F036A09EB
:10C6F40003F180033CD1204A52F82330DB0727D4CE
:10C704003A462946A0680AF02BFC163018D0029746
:10C714002946A06803AA0AF01EFB002816DB0122A2
:10C724002946A0680AF030FCC0E7B3F1C06F05D019
:10C73400B3F1007F14BF01230223C5E70323C3E73A
:10C744003946A06802F0BEFF0028E0DA07B0F0BD69
:10C754003A462946A0680AF003FC0028D8D19DF87F
:10C764000310A06802F0A4FFD2E76FF08500EDE7A4
:10C7740051F82330FFDE00BF00258440044B054AF6
:10C7840001219362044A09201A600022FEF746BE82
:10C7940040DB002084C9002000900040044B054A7F
:10C7A40001219362044A0A201A600022FEF736BE71
:10C7B400E0DA002058C9002000A000402DE9F04F25
:10C7C40089B002AFBB60036993463B6143684FF095
:10C7D400FF32D3F820A09B8A0546FB604FF0FF335D
:10C7E4000C4609F05BFC3B6944337B610026002363
:10C7F4000022786905F0AEFF33465E4501D300237D
:10C8040040E0207A010700F1928001365E452168FC
:10C814000BD2820709D4227D80EA020C0CF0010CB1
:10C8240002F004025CEA020C08D023B901F0604271
:10C83400B2F1005F3FD04FF0000801E04FF0010873
:10C844006268D7F80CE003EB020CF44524D96C467B
:10C854008CB0286802A9374ECA61C1E90563FB6838
:10C864000A46C1E9083040F203530B85324B42F8C3
:10C87400103F00234FF451513048FDF707FF6FF08C
:10C884001B03A54628467B6109F00CFC7B691C3719
:10C894001846BD46BDE8F08FC00705D40AEB030077
:10C8A4007B600CF0C0FA7B6862681A4493B2B8F1FA
:10C8B400000F26D1D3B94FF00008D4F80090A38814
:10C8C400BA68217A284600924A4600F05DF8031EB1
:10C8D400D8DB4FF480420023786905F03BFF40B178
:10C8E400284609F0F2FB6FF00403CBE79846D146E3
:10C8F400E6E73B69DB6D002BF5DB237ADB0702D42B
:10C9040000230C3479E7CA45FAD123460AE0A8EBA0
:10C914000201D8681FFA81F819FA81F17B600CF0E2
:10C9240082FA7B685A680C3B9045F0D2E8E76FF0D6
:10C934008503A7E7F3AA0100060000015096010051
:10C9440008B5CA0743680AD4C1F34201012909D0D2
:10C9540002290FD001210A4A0A4808F094FF6FF017
:10C96400150006E04FF0CC729B6A1B680020C3F8E8
:10C97400242508BD9B6A4FF0C8621B68F6E700BF18
:10C98400DEAB010050960100F0B50C461D4616467C
:10C9940089B04768122200210DF10E000CF050FA04
:10C9A40004F001038DF80C30BDF8383004958DF88F
:10C9B4000D30BB8C0696AB420AD20A480093012183
:10C9C4002B46094A08F072FF6FF01B0009B0F0BD56
:10C9D40084F00202C2F34002B86A520103A903F0D0
:10C9E40063F8F3E750960100F0AB0100B0B50446DC
:10C9F400456800AFAB6998470121E86909F056FB27
:10CA0400234629462A69A86A0AF092FB002817DA05
:10CA140023686C4688B06A460C49C2E905134FF492
:10CA2400007393830A4B42F8103F0A4800234FF4E3
:10CA3400E251FDF72BFE6FF00400A546BD46B0BDE4
:10CA4400204609F05AFB0020F8E700BF37AC01008C
:10CA540003000001509601002DE9F04740F2FF1653
:10CA6400594FDFF868C1DFF868E100EB81018142CA
:10CA740002D10020BDE8F087046814F4804FC4F3A9
:10CA8400C325C4F3080340F08C80240EB34208BFCE
:10CA94004FF0FF337D5D192C00F28680DFE804F04F
:10CAA4000D13191C1F251C8484848436608484849B
:10CAB40084848484848463787B7EC2F80C355C1C13
:10CAC4005BD10430D3E7C2F814355C1CF9D00024E0
:10CAD4005CE0C2F80835F2E7C2F81035F5E75C1CF3
:10CAE400C2F80835EDD0002404E05C1CC2F80C3513
:10CAF400E7D001245FEA531859D14FF00109DFF858
:10CB0400CC8009FA03FAC8F80CA008E0C2F808358A
:10CB1400002DDAD15C1CD4D000240625A146D0F81F
:10CB240000A00AF40048B8F1000F1CBF4FF0000940
:10CB3400012403F01F085B093FD10CEB8808D8F8E7
:10CB44000032CAF3412A03EA0E0343EA8A0343EAA2
:10CB5400052343EA090343EA4403C8F80032B0E773
:10CB6400C2F80C35D4E7C2F86035B3F1FF3F04686E
:10CB7400A7D0C4F30044002CBBD05C091AD1012413
:10CB8400DFF8488004FA03F9C8F80890A146C6E71C
:10CB9400C2F86435E9E7C2F86835E6E7C2F86C35EF
:10CBA400E3E76FF0150065E76FF0850062E70023A7
:10CBB400DB60FFDE00239B60FBE7002308F18008B5
:10CBC40053F82830F5E700BF57AC01000025844036
:10CBD400F0F8FCFF2DE9F04104460D4647680BF0E0
:10CBE400D5FE4FF0200888B9264B1B7873B1642614
:10CBF400606809F0CEFAF0B9012009F06AFF013E3D
:10CC0400F6D1002121200BF078FFF0E7EFF3118635
:10CC1400314688F31288BFF36F8F606809F0B9FA60
:10CC2400A8B986F31188BFF36F8FEFE786F31188F5
:10CC3400BFF36F8FE5E7EFF31186314688F312886F
:10CC4400BFF36F8F606809F0A4FA0028EED0BB69C7
:10CC540000201D706368BA691B68C3F8442501226B
:10CC6400C3F84825C3F82001D3F82041C3F858017C
:10CC7400D3F858019A6081F31188BFF36F8FBDE830
:10CC8400F08100BF0FE800202DE9F04105460022A5
:10CC940001210820FEF7C2FB0820FEF78FFB6C6819
:10CCA4000121E06809F0A6FA6B681A682369C2F8E2
:10CCB4002435617D237D0B43A17D0B43C2F86C3584
:10CCC4006F68D7E9004313F0010346D0D5F810800C
:10CCD40004F10C0108F1080204F5907009F02EFF2C
:10CCE400061E07DA01212A4A2A4808F0CCFD3046FC
:10CCF400BDE8F08198F8080002F00AFB0823C4F8A4
:10CD04000035BB69C4F844350023C4F84835012311
:10CD1400A360D4F85831002BFBD00026C4F800657A
:10CD24006B683146D86809F065FA6D683146E86881
:10CD34002C6809F05FFA0823C4F800352A7A52B93E
:10CD4400EB69C4F834350123C4F83835C4F810212C
:10CD5400D4F8102123600026C9E70822C4F800256E
:10CD6400BA69C4F84425C4F848350123A360D4F84B
:10CD74002031002BFBD00023C4F82031D4F820311B
:10CD84000123E3604FF48073C4F80433C1E700BFA8
:10CD94005FAC0100009701000123834070B5DC43C0
:10CDA4000B4AD2E8EF1F01EA0405C2E8E65F002E51
:10CDB400F7D14FF4803282400648C0F80823BFF30D
:10CDC4005F8FBFF36F8F0B4214BF0120002070BD33
:10CDD400B0DB00200050014070B40E4922F07F46C1
:10CDE400D1E90034D01AC31844F10004C1E9003475
:10CDF400A6F50013B3F5400F09D2074B1B681A0AB6
:10CE04001B069C19054B42F10005C3E9004570BCA3
:10CE140006F07CBBF8D40020B4DB002000D5002051
:10CE2400D9B101230D4A8340D2E8EFCF4CEA030C79
:10CE3400C2E8E1CF0029F7D14FF48033084A834098
:10CE4400C2F80433074BD3E8AF3FC340DB0742BF0C
:10CE54004FF40012044BC3F800217047B0DB0020EC
:10CE640000500140ACDB002000E100E00D4B1868ED
:10CE7400010A0006BFF35F8F0B4BD3F80435181873
:10CE840041F10001B3F5801F0AD2084BD3E9002316
:10CE9400904271EB030303D210F1807041F1000161
:10CEA400704700BFB4DB00200050014000D50020D3
:10CEB4002DE9F04F85B016461F4604469DF840A064
:10CEC400FFF76AFF0190FFF7D1FFB04271EB070350
:10CED40052D23B4B301A67EB0101984271F10001C9
:10CEE4004DD2384B03EB0413D3E902239F4208BF0E
:10CEF400964258D04FF48038334908FA04F8204653
:10CF040026F07F4BC1F8488309F086F94FF00309F6
:10CF1400584604F15005AD00ADB205F1804504F565
:10CF2400A87305F5A8350293029A20F07F4341F8CF
:10CF34002230C1F84483D1F80435244AC01A033896
:10CF440020F07F4090422ED9286868B1D1F804358A
:10CF5400A3EB0B0020F07F40B0F5000F039322D920
:10CF6400204609F059F9039BBAF1000F07D109EBE8
:10CF7400030009F10109D7E7BAF1000F09D06FF0F6
:10CF8400150520460199FFF74BFF284605B0BDE87B
:10CF9400F08F01230E4AA340D2E8EF0F1843C2E8F2
:10CFA400E10F0029F8D107490E982301C8500F9BBF
:10CFB40001EB04120025C2E902675360E1E700BFF8
:10CFC40001008000E8D4002000500140FDFF7F00F4
:10CFD400ACDB00207FB500254FF0FF304FF0FF3170
:10CFE400194C1A4B0226C4F80833C4F84833184BBA
:10CFF400C4F80855C3E902014FF480334FF400121A
:10D00400C4F80433134B0121C4F804631520C3F896
:10D0140080212A46FEF702FA1520FEF7CFF90123F4
:10D024000D4AA360236013600C4B0D4A00932846FD
:10D034000023CDE90155FFF73BFF3046FFF7D0F859
:10D04400284604B070BD00BF0050014003000F002B
:10D05400E8D4002000E100E0B0DB0020DDCD0000DA
:10D06400FFFF7F002DE9F7432E4BD3F804239007ED
:10D074000BD5D3F8042142B10022C3F804212A4A73
:10D08400D3F80431136801331360264AD2F8043309
:10D09400D90326D5254BD3E8EF1F21F00100C3E8BF
:10D0A400E40F002CF7D1CB0702D4D2F84031C3B13E
:10D0B40000251C4CC4F84051D4F84031FFF7D6FE8B
:10D0C400EFF31182202383F31288BFF36F8F184B81
:10D0D400D3E90267B042B94106D282F31188BFF3A3
:10D0E4006F8F03B0BDE8F0834FF0FF38D3E9001031
:10D0F4004FF0FF391D60C3E902894FF48033C4F84F
:10D104004833C4F84051D4F8403182F31188BFF356
:10D114006F8F0029E5D0009032463B462846884769
:10D12400DFE700BF00500140B4DB0020ACDB00208F
:10D13400E8D4002030B5431C124C85B005D084429D
:10D14400A8BF0446012CB8BF0124FFF78FFE0E4B85
:10D154000C4DD3E90013401AB0F5000F0FD222187A
:10D16400AA4228BF2A46002052180849CDE90100E6
:10D17400009143F10003FFF79BFE05B030BD2A4642
:10D18400F1E700BFFFFF7F00F8D40020DDCD0000F1
:10D1940008B5FFF76BFE024B1B68C01A08BD00BF41
:10D1A400F8D40020012310B5074C15206360FEF766
:10D1B40013F94FF40012054BC4F80833C4F848338C
:10D1C400034BC3F8802110BD0050014003000F0041
:10D1D40000E100E037B504690D4694F835304BBBE7
:10D1E4000B7B022B29D10B680BBB94F834204B68C2
:10D1F400D2B9134A591E914219D8236320460DF11E
:10D2040007010AF026F810F10C0F0BD0AB689DF85B
:10D21400070013B1021D44F8223094F8343001336E
:10D2240084F8343003B030BD226B9A42E6D06FF0FC
:10D234001500F7E76FF00F00F4E76FF08500F1E7F2
:10D24400FEFFCF0710B50022046901211820FEF764
:10D25400E5F800232046BDE810401946014A09F0CC
:10D26400D4BF00BF6DD200002DE9F0410C464FF051
:10D2740001080A4E0A4F0CB9BDE8F08194FAA4F5EE
:10D28400B5FA85F52B1D56F8233013B129463846D7
:10D29400984708FA05F524EA0504ECE7B0C900202C
:10D2A400DC92010070B50546054C064EB44200D32D
:10D2B40070BDD4E90031284698470834F6E700BF2A
:10D2C40070B8010070B8010070B5002201212A2055
:10D2D400FEF7A4F80B4802F0BDFE044628B1012174
:10D2E4000346094A094808F0D7FA094D094EB542E0
:10D2F40001D3204670BDD5E9003120469847083552
:10D30400F5E700BF28990100B0AC0100A896010020
:10D3140070B8010088B8010037B5124C124DAC4208
:10D324001AD3124912480DF1060203F07BFC0128BE
:10D334000DD1BDF8063023F004039BB23BB10D4878
:10D3440002210D4A08F09FFA0C4803F01FFB02F07B
:10D35400E7FE002003B030BDD4E90030984708341C
:10D36400DDE700BF88B8010088B80100DCAC01002B
:10D37400E7AC0100A8960100F0AC01004BAD010040
:10D38400F0B50F4B01461A680E4B0B2500261846C4
:10D394001F46B84201D3013D04D11846013A196031
:10D3A4005A60F0BD04688C42FBD03CB14468141B45
:10D3B400A642BCBF034626460830EAE70346ECE72C
:10D3C400A4DC0020B0DC00200020054BC3E90000F1
:10D3D400044BD3E8EF2FC3E8E10F0029F9D17047DC
:10D3E400A8DC0020A4DC00202DE9F04F89B005461C
:10D3F4000E4609F075FF20B96FF06D0009B0BDE865
:10D40400F08F0BF006FC33680446002B0F4604D162
:10D4140005F0DCFD6FF00A00F0E7BCBF4FF0FF330E
:10D4240033600122002101A80BF049FAE846079570
:10D43400EFF3118B202383F31288BFF36F8F0BF06C
:10D444007DFEDFF828A1DFF828915AF80000FFF7E5
:10D4540097FFD9F8003042689A426ED10023454DB7
:10D4640000936B68002B6FD1C5E900888BF311889A
:10D47400BFF36F8F33685A1C6BD04FF4004E40F2E9
:10D48400E730002123EAE37C4FF47A720023CCFBDB
:10D494000E01FAF755FE02460B4601A805F05AF9AB
:10D4A400EFF3118B202383F31288BFF36F8F0022D5
:10D4B4002B685BB1434556D10099002A4DD16A6867
:10D4C40029609A4200D16960002300930BF036FE74
:10D4D4005AF80000FFF754FFD9F8003043608BF38B
:10D4E4001188BFF36F8F09F0FBFE002884D03568E4
:10D4F4006B1C27D00BF08DFB4FF47A7EA0FB0E3211
:10D504000EFB0121A4FB0E420EFB0722DB0BE40BF6
:10D5140043EA414344EA42441B1B4FEAD1314FEAF8
:10D52400E57C61EBD231ED1A6CEB010CBCF1000F20
:10D53400B8BF002535602DB96CE743608BF31188C3
:10D54400BFF36F8F002059E7C3F80080C5F804804B
:10D554008CE74FF0FF3213469FE7116069689942E8
:10D5640008BF6A60B0E71A461B68A2E7080000001B
:10D57400A4DC0020A8DC0020024600B50BF0DEFD90
:10D58400014B1A505DF804FB0C00000030B4046831
:10D594002CB10D4B9C4202D3D8339C420BD30B4C81
:10D5A4002378082B0BD85D1C2570074C03EB430331
:10D5B40004EBC3030360006830BC0BF080B96FF068
:10D5C4000B0030BC704700BFCCDB00207AE30020A6
:10D5D40002682AB1094B9A4202D314339A4206D301
:10D5E400074B1A7832B901221A70044B03600068A1
:10D5F4000BF0C9B86FF00B00704700BFB8DB002018
:10D6040079E3002038B505460A4BD3E8EF1F013112
:10D61400C3E8E21F002AF8D1074B1C6804B938BDDF
:10D62400E369AB4201D005B113B9201D05F058F8E8
:10D634002468F3E7A4DC0020A8DC002001460022D3
:10D644000023014804F032BF00DD002001460148F8
:10D654000BF050B800DD00200146002200230148F1
:10D6640004F024BF14DD0020014601480BF042B849
:10D6740014DD002008B54FF48062064906480BF01B
:10D6840031F8BDE808404FF40252044904480BF055
:10D6940029B800BF7BE3002000DD0020E8840020DF
:10D6A40014DD002010B5044B1C6804B910BD201D06
:10D6B40005F016F82468F8E7A8DC002070B50546E4
:10D6C400054C064EB44200D370BDD4E9003128465F
:10D6D40098470834F6E700BF68B8010070B8010045
:10D6E40003460121014A024808F0D6B85FAD0100A3
:10D6F400A896010008B1FFF7F3BF014803F040B951
:10D70400C1D60000292800F08D8009DC012855D0FD
:10D71400062800F0918000287DD04FF0FF3070473C
:10D72400B0F58D7F08D0B0F5007FF6D140F2064306
:10D734009942F2D11E2128E00F2929DC0029ECDDD1
:10D744004B1E0E2BE9D801A050F823F08FD7000010
:10D754008FD700008FD700008FD700008FD700002D
:10D764008FD700001FD700001FD700001FD700006D
:10D774001FD700001FD700008FD700008FD70000ED
:10D78400ADD70000B1D700000E2100201160704712
:10D79400A1F2FA33042BC0D8A1F2FB310329F3D848
:10D7A400DFE801F02F06080A0F21EEE71021ECE76D
:10D7B4001221EAE71321E8E71421E6E740F20943DE
:10D7C400994220D009DC1429DFD004DC0229DCD002
:10D7D4000429DAD0A1E71529FBE740F22543994251
:10D7E40013D008DC40F20A43994210D0B1F5826F9D
:10D7F40093D12821C9E740F2274399428DD13F2193
:10D80400C3E71121C1E72121BFE73D21BDE7222163
:10D81400BBE72021B9E740F2074399427FF47DAF8B
:10D824001F21B2E7B1F5816FF3D040F2264399424C
:10D834007FF473AF3E21A8E740F21F4399427FF47F
:10D844006CAF3721A1E700BF002330B50E4C05684B
:10D8540085B05A01A25804EB4311954203D1CA6919
:10D864002AB905B030BD0133082BF2D1F9E74B6872
:10D87400019383680393436801A8002B18BF0B230B
:10D8840002939047EDE700BF2CDD00204FF0FF32FC
:10D89400074B00201A601A621A641A66C3F88020C3
:10D8A400C3F8A020C3F8C020C3F8E020704700BF2D
:10D8B4002CDD00202DE9F0431C46002387B001290C
:10D8C40080460E461546CDE904330E9FD0F80090ED
:10D8D40003D1192A12D15F2307E02946304603AA4F
:10D8E400FFF710FF002823DA6D230BF027FC1B4AF7
:10D8F40013504FF0FF3007B0BDE8F083294630469F
:10D9040003AAFFF7FFFE0028EEDBA5F11403012BA9
:10D9140015D80CB3082723680493A36804AC0593B3
:10D92400234631464846039A009703F0DBFEE2E7BC
:10D93400B6F58D7FF4D10C2D08BF0427F0E740F233
:10D9440027439D42ECD12CB123680427044CC8F82A
:10D954001C30E5E7C8F81C400024E1E70C00000097
:10D96400E8C900202DE9F0411D4600238AB00F4686
:10D974001446CDE9043308230668214638460DEBE6
:10D984000302DDF840800393FFF7BCFE00280ADAA7
:10D994000BF0D4FB6D224FF0FF361F4B1A5030466C
:10D9A4000AB0BDE8F081012F1DD1A4F11403012BAD
:10D9B40019D803AA04AB304600923946029A03F000
:10D9C4007BFF06460028EAD1012FE8D1042C0DD1B3
:10D9D40028680028E3D0FFF7CFFD0BF0AFFB0E4B18
:10D9E4001B582B60DBE742462B46E4E7143C012C32
:10D9F400D5D8D8F80040049B102C28BF1024CDE9BA
:10DA04000630059B2246284606A908930BF00BFA1C
:10DA1400C8F80040C3E700BF0C0000000B490346F0
:10DA2400087880B90A49097839B1A2F580710229C8
:10DA34000AD9A2F58872012A06D9013B022B8CBFB0
:10DA44000020012070470020704700BFFCE7002041
:10DA5400FBE700202DE9F0430546D0F800908068EC
:10DA640089B00E4617469846109C08B108F091FC00
:10DA7400A4B9CDE9004443463A46314648460AF043
:10DA8400E3F80446A86828B14FF0FF324FF0FF33A3
:10DA940008F07DFC204609B0BDE8F0832388012B03
:10DAA4000BD1ADF808306368628803930823ADF89E
:10DAB4000A2001936B440093DDE7022B18D162889E
:10DAC400ADF80830ADF80A20231D0DF10C0C04F15B
:10DAD400140E624618685968083303C273459446A5
